:020000040800F2
:10000000701E00207D02000885020008870200089B
:10001000890200088B0200088D0200080000000021
:100020000000000000000000000000008F02000837
:100030009102000800000000530200087940000807
:10004000970200089702000897020008970200082C
:10005000970200089702000897020008970200081C
:10006000970200089702000897020008970200080C
:1000700097020008970200089702000897020008FC
:1000800097020008970200089702000897020008EC
:1000900097020008970200089702000897020008DC
:1000A00097020008970200089702000897020008CC
:1000B000ED40000897020008970200089702000828
:1000C00097020008970200089702000897020008AC
:1000D000970200089702000897020008970200089C
:1000E00097020008970200089702000800F002F843
:1000F00000F090F80AA090E8000C82448344AAF132
:100100000107DA4501D100F085F8AFF2090EBAE82F
:100110000F0013F0010F18BFFB1A43F0010318473B
:10012000A0630000C0630000103A24BF78C878C103
:10013000FAD8520724BF30C830C144BF04680C60ED
:10014000704700000023002400250026103A28BF35
:1001500078C1FBD8520728BF30C148BF0B60704739
:100160006E2900F0DC82702900F02784662906F0F1
:100170004080652906F03D80672906F03A806129B4
:1001800006F0398003681B0A28BF41F08001692905
:1001900000F0C480642900F0C180752900F0BE80A1
:1001A0006F2900F0B483782900F0F383E92900F087
:1001B0004F83E42900F04C83F52900F04983EF29AF
:1001C00000F0B183F82900F0F2830368DB0928BF4F
:1001D00041F08001632900F0D787732900F0DC87A4
:1001E000E32900F0E787F32900F0EC87002070474F
:1001F0001FB501F039F804000020002104F0BEFF13
:10020000401C60600020002104F0A2FFE0601FBDE0
:1002100010B510BD00F0FAFF1146FFF7E9FF04F03A
:1002200095FC01F0D7F803B4FFF7F2FF03BC01F02F
:100230001FF9000010480268D2F800D0BDE8F00FA6
:100240000FBC5DF804CB01B05DF804EB01B062B601
:10025000704772B62DE9F00F07480168C1F800D069
:1002600001B504F0D9FEBDE801400168D1F800D025
:10027000BDE8F00F62B670470400002009488047CF
:1002800009480047FEE7FEE7FEE7FEE7FEE7FEE778
:10029000FEE7FEE7FEE7FEE704480549054A064B90
:1002A000704700008D400008ED0000087018002025
:1002B000701E0020701A0020701A00207CB51D46A8
:1002C00016460C00009001D02044401E074B7B4492
:1002D0002A4669460190304600F03BFA05461CB1BB
:1002E0000020694600F048FA28467CBDB1040000B1
:1002F0000FB41CB5084B06AA7B44694600900598CC
:1003000000F027FA04460020694600F035FA20463E
:100310001CBC5DF814FB00007D0400002DE9F041D9
:100320000646002410687529314616A510D000F045
:1003300062F9002802DA404213A507E031688A0713
:1003400001D512A502E0490704D511A5012401E059
:1003500000F05AF900210A2206F1240709E0B0FB57
:10036000F2FCB0FBF2F302FB1C003030785418466C
:10037000491C0028F3D123462A463046BDE8F04107
:1003800000F074B9000000002D0000002B000000F8
:10039000200000002DE9F05F894604464FF0000A76
:1003A000DFF874B1FB44C0F820A02046E16888471C
:1003B000002874D0252806D0D4E901219047206A6E
:1003C000401C2062F1E700265F462046E16888472E
:1003D0002028054607DB312D05D2781910F8200CAE
:1003E00008B10643F1E7B00701D526F00406C4F8CA
:1003F0001CA00027C4F818A02A2D09D0284604F014
:1004000083F938B304EB8708303DC8F8185019E079
:1004100059F8041B204604EB87029161E168884784
:10042000012F054618D1E069002820DA26F02006C1
:100430001DE0D8F8180000EB800005EB40003038D4
:10044000C8F818002046E1688847054604F05CF9C2
:100450000028EED1012F0AD02E2D08D12046E168C8
:1004600088477F1C0546022F46F02006C4DBA069A2
:10047000002803DA404246F00106A061F00701D0EF
:1004800026F010066C2D0BD0682D09D04C2D39D0DC
:100490006A2D35D0742D35D07A2D33D016E038E062
:1004A000E1682F4620468847B842054609D16C2F9F
:1004B00026D04FF48060E168064320468847054611
:1004C00004E06C2F1AD04FF4807006430DB3A5F1F1
:1004D0004100192802D8203546F400664A462946CC
:1004E000204626604E46FFF73BFE80B101280BD028
:1004F000F61D26F0070000F1080956E74020E4E762
:100500008020D8E70020D6E706F104094DE7284609
:1005100052E7206ABDE8F09F1960000040EA01033D
:10052000024630B59B0710D14FF0013400E008C2FD
:1005300008C91D1B9D4315EAC41FF8D013F0FF0125
:1005400002F8011B0DD01B0AF8E711F8013B002B44
:1005500002F8013B05D011F8013B002B02F8013BEA
:10056000F3D130BD10B5431C02E010F8011B71B18E
:100570008107FAD14FF0013202C88C1A8C4314EA79
:10058000C211F9D0C01A0A0603D0C01E10BDC01A8D
:1005900010BD0A0401D0801E10BD0902FCD0401E0F
:1005A00010BD70477047704770B504468569006894
:1005B000C10601D5302600E02026C00707D070BD57
:1005C000D4E9012130469047206A401C20626D1E0C
:1005D000F6D570BD70B5044685690078C00707D1AF
:1005E00070BDD4E9012120209047206A401C206280
:1005F0006D1EF6D570BD09684A0501D540B2704739
:10060000C905FCD500B2704709684A0501D5C0B2DA
:100610007047C905FCD580B2704770B50C460546D9
:10062000012A05D02878800600D5EA69002302E077
:10063000012305E05B1C934202D2E05C0028F9D163
:10064000A869E618C01AA861286A184428622846D2
:10065000FFF7AAFF04E0D5E9012114F8010B904748
:10066000B442F8D32846FFF7B5FF70BD2DE9F04737
:100670000D4699469246044600F124080168880612
:1006800004D5E06921F01001216000E00120A842BA
:1006900001DD471B00E00027A1697A1902EB090080
:1006A000081AA0612078C00602D42046FFF77CFF1C
:1006B000002608E0D4E901211AF806009047206AD4
:1006C000401C761C20624E45F4DB2078C0060AD51B
:1006D0002046FFF769FF06E0D4E90121302090476A
:1006E000206A401C2062381EA7F10107F4DC07E0F5
:1006F000D4E9012118F805009047206A401C2062C7
:10070000281EA5F10105F3DC2046FFF763FF2078E2
:10071000000602D50220BDE8F0870120FBE7116842
:100720000268006A530501D508700AE0D30501D5B7
:10073000088006E0130603D5C217C1E9000200E0F5
:10074000086001207047000001694A1C02610878B6
:10075000704700B58FB0CDE9013100210591054901
:100760007944CDE9031011466846FFF713FE0FB038
:1007700000BD0000E5FFFFFF0A6802F8010B0A60F8
:100780007047D1E900239A4202D2531C0B601070CB
:10079000704700002DE9FF5F15468A460446DFF8E2
:1007A000AC80F8440027D8E900103E46CDE900109F
:1007B00010E03AF816106A4602A800F007FD411C46
:1007C00007D02178890603D5E269391891420DD8FE
:1007D0000744761C2078800602D5E069B84205DD22
:1007E000AE42E6DB3AF816000028E2D1A069C01B51
:1007F000A0612046FFF7D8FED8E90010CDE900102F
:10080000002017E03AF818106A4602A800F0DEFC53
:10081000B0F1FF3F81460BD000250DF1080B05E03C
:10082000D4E901211BF8050090476D1C4D45F7D315
:1008300008F10100B0428046E4DB206A38442062BF
:100840002046FFF7C7FEBDE8FF9F00002E5C0000BA
:100850002DE9F0418046D21D22F007020025D2E9A1
:100860000002F52915A614D0011E72F1000106DA66
:100870000023D0EB030063EB020211A608E0D8F8D6
:1008800000108B0701D50FA602E0490701D50EA67F
:1008900001251146002408F1240704E000F098F82F
:1008A00030323A55641C50EA0102F7D12B463246E9
:1008B00021464046BDE8F041FFF7D8BE00000000E9
:1008C0002D0000002B0000002000000030B40021AB
:1008D00000F1240408E002F00705D208303542EAAE
:1008E0004372DB086554491C52EA0305F3D10468DE
:1008F000002310A2250707D5A40600D421B1C4699E
:1009000001230DA2641EC46130BCFFF7AFBE10B559
:10091000044621461068FFF777FE02462046BDE8F0
:1009200010400023D2E7D21D22F00701D1E90023B5
:10093000CCE700000000000030000000F0B40D46DD
:100940000188090502D5214C7C4402E01F4C7C44FF
:100950000E34002100F1240608E002F00F0712090E
:10096000E75D42EA03721B097754491C52EA030708
:10097000F3D102780023120704D5702D06D009B1F7
:10098000022311342246F0BCFFF770BE012310345D
:10099000F8E770B504460D4621461068FFF734FEAF
:1009A000024629462046BDE870400023C6E7D21D16
:1009B00022F00703D3E90023C0E70368126843F07D
:1009C000200303600823C3610023B7E7905A0000A7
:1009D00030B5B0F10A024FEA900E71F100034EEA11
:1009E000817EB0EB0E0061EB91014FEA101E4EEAE2
:1009F000017E10EB0E0041EB11114FEA102E4EEA72
:100A0000016E10EB0E0041EB11214FEA104E4EEA41
:100A1000014E10EB0E0041EB1141401841F1000175
:100A20004FEAD00040EA41704FEAD10110EB800557
:100A30004FEA810444EA907444EB01046D1944EBDD
:100A40000404521BA3414FF0000348BF0A3200D5F3
:100A500030BD401C41F1000130BD70472DE9FF4F12
:100A60000C461E464FF0FF378BB0D2E90001DDF88F
:100A700060800A908A46C1F30A5505B93D460021B7
:100A800008464FF00000BAF1000F00F4400005DA0C
:100A900000EB80004FF4400101EA50004FEA90590A
:100AA000B9F1010F00DDB9460A9850EA4A000ED0AC
:100AB00044F61050A5F2FF3545432F14B8F1000F4E
:100AC0001ED07542291E1EDDC9F100021CE0B8F1DE
:100AD000010F4FF0000001D0302103E0F24305E0A8
:100AE0002154401CB042FBDB30460022002121543F
:100AF0000B99C1F80880C1E900200FB0BDE8F08F64
:100B0000BD1B6D1CDEE74A4600DA694206A800F00C
:100B1000EFFB06AB93E8070003AB83E80700504602
:100B20000A9900F0ACFC8DE80700A0F500501F38D2
:100B300000900398002D0ADD42F21F014A46084446
:100B4000002303A90390684600F015FF09E0A0F513
:100B500000504A461F38002303A90390684600F05E
:100B60001FFF8DE807000004000C03D04FF0FF309A
:100B7000410800E01046B8F1000F03D000220092B7
:100B800015461EE0751E05D4FFF722FF3032625570
:100B90006D1EF9D5B3460122084302D000227F1C06
:100BA00004E02078302801D100227F1E002A099716
:100BB00084D01DE0112D07DAFFF70AFF30326255AD
:100BC0006D1C50EA0102F5D1084302D00098C8B16B
:100BD0000EE00021681E05E0235C625C6354225431
:100BE000401E491C8142F7DBAB46A81B401E099002
:100BF000002004F80B000B98099AC0F80880C0E99F
:100C0000002B7AE711264FF0000857E72DE9F04F47
:100C100088460446D21D22F0070191B0D1E90001B7
:100C2000CDE90A0103F05CFD02460B98C00F01D02C
:100C30002D2007E02068810701D52B2002E020212C
:100C400001EAC000032A099001D0072A05DB034608
:100C50004146204600F00CFB0BE12078800601D5D0
:100C6000E06900E00620B8F1650F814606D0B8F1D2
:100C7000660F18D0B8F1670F70D131E00020B9F1DC
:100C8000110F009001DB112301E009F101030AAA11
:100C900001A90CA8FFF7E2FEDDE90C70002609F1BE
:100CA0000105834647E001204B4600904FF0004786
:100CB0000AAA01A90CA8FFF7D1FEDDE90DB00C9935
:100CC0005D46002610B909F101000D18B9EB0500C9
:100CD00003D4C0F1FF3609F10105A5EB09002BE0B3
:100CE000B9F1010F01DA4FF001090020B9F1110F3C
:100CF0000090484601DD112300E003460AAA01A93D
:100D00000CA8FFF7ABFEDDE90C704D4600268346CC
:100D1000207800070AD4AB4500DA5D4601A8012D12
:100D200004DD411911F8011C302907D04F4502DAC2
:100D300017F1040F04DA012082460FE06D1EEEE782
:100D4000002F02DCED1B3E4403E0781CA84200DDCE
:100D50007D1CB81B00F1010A4FF000472078000706
:100D600003D4AA4501DB4FF0FF3A0021B7F1004F51
:100D70000DF143088DF8431024D002202B23002FBF
:100D800001DA7F422D230A21021EA0F1010000DCBE
:100D90005FB197FBF1FC97FBF1F201FB1C7C17465E
:100DA0000CF1300C08F801CDEEE7A8F1010003705A
:100DB0002188090501D5452100E06521A0F1010840
:100DC00000F8011C09980FA9A1EB0807FF1D00B14D
:100DD0000120411901EBEA70A1693844081A401E4C
:100DE000A0612078C00602D42046FFF7DDFB0998F9
:100DF00028B1D4E901219047206A401C2062207864
:100E0000C00622D52046FFF7CFFB1EE0002E04DBF4
:100E1000B34502DD01A8805D00E03020D4E9012166
:100E20009047206A401C2062761CAAF101005FEA0C
:100E3000000A0AD100F018FAC0680168405CD4E9E1
:100E400001219047206A401C2062281EA5F101055F
:100E5000DCDC07E0D4E9012118F8010B9047206A97
:100E6000401C2062381EA7F10107F3DC2046FFF783
:100E7000B1FB032011B041E62DE9F04F04460D46C9
:100E8000D21D22F0070089B0D0E9009748463946C4
:100E900003F026FC0246F80F01D02D2307E020685E
:100EA000810701D52B2302E0202101EAC0038DF840
:100EB00020300BB1012000E00020032A824601D03F
:100EC000072A04DB2946204600F0D2F93FE12078CA
:100ED000800601D40D2500E0E569C7F30A560D2D03
:100EE00049DA00214FEA175B08464FF00000002F57
:100EF00000F4400007DA00EB80004FF4400100EB03
:100F0000D07001EA60008115012901DD4FF0FF3149
:100F100000224FEA850CBCF1180F06D31346ACF142
:100F200018004FF08052C24003E04FF4801323FAC0
:100F30000CF30CF10C0CBCF1200F04D3ACF1200C21
:100F400009FA0CF001E007FA0CF000294FF0004814
:100F500001DD18B90FE00ED140450CD319EB0209A1
:100F60005F4121B9404502D19F4329EA0209BBEB09
:100F7000175F00D0761C2088000502D57B48784496
:100F800002E07A487844193808AA302302F80A3077
:100F9000037C0AF10101002E0AF1020A53546A4649
:100FA00002DC4FF0300101E04FF031014FF0010859
:100FB0008DF8001002D0A6F2FF3603E059EA47018F
:100FC00000D06B4E002D02DC2178090704D54FF0CC
:100FD00002082E218DF80110C44600210BE0C7F352
:100FE00003433F01C35C491C6D1E02F8083005290C
:100FF00008F1010801DA002DF1DC00210CE000EB22
:101000001973491C1B786D1E082902F808304FEA35
:10101000091908F1010801DA002DF0DC21688B06BE
:1010200002D516E0A8F10108E04505DD02EB080352
:1010300013F8013C302BF5D0B8F1000F09DD02EBBD
:10104000080313F8013C2E2B03D1090701D4A8F1A2
:101050000108002D05DD3E2102F808106D1E08F183
:101060000108407C002E02F8080008F1010804DAAB
:101070002D20764202F8080002E02B2002F808003A
:101080000A214FF47A70864208F101080BDB96FBC7
:10109000F0F3303302F8083096FBF0F308F1010862
:1010A00000FB136601E0642E0CDB642096FBF0F37A
:1010B000303302F8083096FBF0F308F1010800FB2A
:1010C000136601E00A2E06DB96FBF1F0303002F8E1
:1010D000080008F1010896FBF1F001FB10603030C8
:1010E00002F80800A16908F1010808EB050202EB0B
:1010F0000A00081AA0612078C00602D42046FFF733
:1011000053FA216A08AE01EB0A00206204E0D4E938
:10111000012116F8010B9047BAF1010AF7D22078A5
:10112000C00602D52046FFF73FFA6E4609E016F8E2
:10113000010B3E280FD0D4E901219047206A401CC2
:101140002062B8F10108F2D22046FFF743FA09B055
:101150000320BDE8F08F206A2844206203E0D4E930
:101160000121302090476D1EEBD3F8E79554000025
:1011700002FCFFFF10B5436913B1AFF3008001E03B
:10118000FFF74BFA012010BD127800F124010A701C
:1011900000224A700122EDE711684FF0FF32E9E7C3
:1011A00010B5436913B1AFF3008001E0FFF7F2FA25
:1011B000012010BD128800F1240182840022C28423
:1011C0000122EDE711684FF0FF32E9E770B51646EE
:1011D0000C46054600F040F8036893F80101012829
:1011E00006D0FF2C0FD8185D68B101202C7070BD9F
:1011F000D3F807013246214603F207130344284679
:10120000BDE8704018474FF0FF3070BD754600F0E4
:10121000EBF8AE4605006946534620F007008546C8
:1012200018B020B5FFF738F8BDE820404FF00006B1
:101230004FF000074FF000084FF0000B21F00701BE
:10124000AC46ACE8C009ACE8C009ACE8C009ACE801
:10125000C0098D467047000010B500F005F8001D6C
:1012600010BD00BF193F0000004870473018002033
:101270002DE9F0411F46044603260168072A01F4C0
:10128000006004DB08B116A505E016A503E008B16F
:1012900015A500E015A521F010002060A069C01E72
:1012A000A0610FB1401EA0612046FFF77DF94FB14C
:1012B000D4E9012138469047206A401C2062C01CB6
:1012C000206206E0206AFAE7D4E9012115F8010B53
:1012D0009047761EF8D22046FFF77CF9BDE8F081F2
:1012E0004E414E006E616E00494E4600696E6600CA
:1012F0002DE9F047814616468AB0354878440DC836
:101300008DE80D0032487844801C03AC0DC884E899
:101310000D0041F69B300844372190FBF1F290FB21
:10132000F1F5A5F1800501FB12041B3C02D56442D6
:10133000012000E00020DFF898A080460027FA4452
:10134000AAF1BE0A0EE0E0070AD03246684607EB73
:10135000470101230AEB810100F022FB8DE8070021
:1013600064107F1C002CEED1194F7F44AE3F19E072
:10137000E80715D007EB04100DF1180A90E80E00ED
:101380008AE80E00C068F04201D1981908903246F0
:10139000012306A903A800F003FB03AB83E80700C1
:1013A0006D10641C002DE3D14FF0010332466946F5
:1013B000B8F1000F03A802D000F0DDFA01E000F060
:1013C000EFFAC9E90001C9F808200AB0BDE8F087C2
:1013D000A851000010B50446AFF300802046BDE8D8
:1013E0001040FEF720BF0000004870471018002092
:1013F0004FF0013C50F8042B51F8043B9A4221D1A4
:10140000A2EB0C03934313EACC1317D150F8042B2F
:1014100051F8043B9A4215D1A2EB0C03934313EA13
:10142000CC130BD150F8042B51F8043B9A4209D14C
:10143000A2EB0C03934313EACC13DBD04FF0000074
:10144000704700BFD01A01BAB1FA81F101F018015A
:1014500022FA01F0CB40C1F12001DBB2C0B2C01AC8
:101460002CFA01F3D11A914311EAC311E6D1704766
:1014700001491820ABBEFEE72600020070475FEA74
:10148000400C08BF91F0000F4FEA8C234FEAC122B5
:1014900043EA51514FEA1C5018BF00F5F0404FEAA3
:1014A000300018BF41F000415FEA6C5C00F0298019
:1014B000BCF1FF3F08BF40F080407047130C06BFEF
:1014C00012044FF0100C4FF0000C130E04BF120268
:1014D0000CF1080C130F04BF12010CF1040C930F54
:1014E00004BF92000CF1020CD30F04BF52000CF1A8
:1014F000010C11464FF00002A0F11F00A0EB0C0000
:10150000704711F0004F08BF704731F000413FF4C1
:10151000D5AF0B0C06BF09044FF0100C4FF0000CB8
:101520000B0E04BF09020CF1080C0B0F04BF0901DC
:101530000CF1040C8B0F04BF89000CF1020CCB0FD3
:1015400004BF49000CF1010CCCF12003A0EB0C000E
:1015500022FA03F302FA0CF241EA030100F101005E
:10156000704720F07F4C80EA030023F07F47ACEB0C
:10157000070303F57C5300F0004003F1FF032DE95E
:1015800080494FEA154B09B44FEA144325EA0B4E44
:1015900024EA03480FF2042606EB132749083E7895
:1015A0005FEA320203FB0667C7F5000707FB06F692
:1015B0004FEA54374FEAD64606F1020607FB066C9F
:1015C000CCF1005C4FEA1C472CEA074C07FB06F401
:1015D0000CFB06F504EB15464FEA961634BF0020C7
:1015E0004FF000404FEAD13706FB07FC4FEA1C4C96
:1015F0000CFB0BF7D21B03FB0CF761EB07010CFB99
:101600000EF7B0EB074072EB17420CFB08F734BF44
:10161000A2EB0742B2EB074261EB17414FEA0C44E1
:101620004FEA910706FB07FC4FEA1C4C0CFB0BF73B
:10163000B0EBC74072EB573203FB0CF734BFA2EBA1
:10164000C742B2EBC74261EB57310CFB0EF7B0EB70
:10165000C70072EB57720CFB08F734BFA2EBC7024E
:10166000B2EBC70261EB5771039F4FEA816141EA18
:10167000921104EBCC044FEAD1374FEA826206FBA9
:1016800007FC42EA90124FEA80604FEA1C4C0CFBC8
:101690000BF7D21B03FB0CF761EB07010CFB0EF7FA
:1016A000B0EB074072EB17420CFB08F734BFA2EB1C
:1016B0000742B2EB074261EB17414FEA8C554FEA04
:1016C000910704EB9C2406FB07FC4FEA1C4C0CFB27
:1016D0000BF7B0EBC74072EB573203FB0CF734BF8C
:1016E000A2EBC742B2EBC74261EB57310CFB0EF7DE
:1016F000B0EBC70072EB57720CFB08F734BFA2EBDC
:10170000C702B2EBC70261EB577115EB4C254FEAEC
:10171000816141EA92114FEA82624FEAD13742EA8F
:10172000901206FB07FC44F100044FEA80604FEA88
:101730001C4C0CFB0BF7D21B03FB0CF761EB0701F6
:101740000CFB0EF7B0EB074072EB17420CFB08F7EF
:1017500034BFA2EB0742B2EB074261EB174115EB36
:101760001C154FEA813141EA92414FEA823242EA46
:1017700090424FEA80304FEA0C7644F1000448EA88
:1017800003434EEA0B484FF0000EB2EB080C71EB2E
:10179000030724BF624639464EEB0E0E4FF0000B96
:1017A0000018524149414BEB0B0BB2EB080C71EBAB
:1017B00003077BF1000B24BF624639464EEB0E0E49
:1017C0004FF0000B0018524149414BEB0B0BB2EBB1
:1017D000080C71EB03077BF1000B24BF624639460E
:1017E0004EEB0E0E51EA020718BF46F0010616EB4B
:1017F0000E7655F1000254F1000103D5BDE88901D0
:10180000BDE80088BDE88901BDE80048B61952412D
:1018100041EB0101A3F10103704780807F7E7D7C55
:101820007B7A7978777676757473727171706F6E72
:101830006E6D6C6C6B6A6A6968686766666564641D
:10184000636362616160605F5F5E5E5D5D5C5C5BA7
:101850005B5A5A5959585857575656555555545416
:10186000535352525251515050504F4F4F4E4E4D74
:101870004D4D4C4C4C4B4B4B4A4A4A4949494848C0
:101880004847474747464646454545444444444300
:1018900043434342424242414141002B9C4630D4A3
:1018A00077002BD01CB54FEA370703B44FF0100078
:1018B0004FF01001BAF1000F06D0BCF1000FDCBFF1
:1018C00040F0080040F008014FF000000FBCBDE8F8
:1018D00010400BF1010BBBF1010F08BF5FEA1707C6
:1018E00022BF12F1010211F101014FF0004143F159
:1018F000000300F0004043EA00007047F9D35708A6
:10190000D0E746EA064613F1400F4FEA16461FDDC0
:1019100013F1200FDFBF16430A46002120335B423C
:10192000BED0C3F1200746EA064602FA07F74FEA9F
:10193000164646EA0706C3F1200722FA03F201FA27
:1019400007F721FA03F14FF0000342EA0702A7E785
:1019500046EA020646EA06464FEA164646EA010607
:10196000BCBF46EA0646360C4FF000034FF00002BB
:101970004FF0000194E72DE9804C9A46934670B4ED
:1019800091E8380007C831EA400C48BF34EA430CFC
:1019900003D5FFF7E6FDFFF780FFF0BCBDE8008C44
:1019A0002DE9804C9A46934670B491E8380007C8F8
:1019B00010F0804F08BF13F0804F03D100F005F8FE
:1019C000FFF76BFFF0BCBDE8008C20F07F4780EA9A
:1019D000030023F07F4C07EB0C03A3F57C5300F0CE
:1019E0000040A3F1FE0392F0000F00F0B38095F0E9
:1019F000000F00F077802DE901494FEA11404FEACE
:101A0000144621EA004800FB06FC24EA064708FBCE
:101A100006F607FB08F800FB07F718EB06484CEB47
:101A2000164C4FEA124B18EB07484FEA15464CEBA1
:101A3000174022EA0B4E0BFB06FC25EA06470EFB7D
:101A400006F607FB0EFE0BFB07F71EEB064E4CEBF4
:101A5000164C4FF000061EEB074E4CEB174B18EBE5
:101A60000B0840F1000018EB0E0B58EB000840F19A
:101A700000008F1A4FF000013CBFC943661B14BF22
:101A8000B5EB040C00213CBFC943F61B4FEA1744D9
:101A90004EEA8E0E27EA04454FEA1C4704FB076214
:101AA0002CEA074C05FB07F70CFB05F604FB0CFCC6
:101AB00016EB074642EB174216EB0C4642EB1C4274
:101AC0001BEB060658EB0202414146EA9E0601D591
:101AD000BDE80189B619524141EB0101A3F10103AF
:101AE000BDE801894FEA14454FEA114724EA05464B
:101AF00021EA074C05FB07F406FB07F70CFB06F190
:101B000005FB0CFC11EB074144EB17444FEA12476D
:101B100011EB0C4144EB1C4422EA074C05FB07F295
:101B200006FB07F70CFB06F605FB0CFC16EB07465D
:101B300042EB174216EB0C4642EB1C456A1854F177
:101B4000000148BF7047B619524141EB0101A3F1B2
:101B50000103704795F0000F37D04FEA11424FEA6A
:101B6000144721EA024624EA074C02FB07F106FB70
:101B700007F70CFB06F402FB0CFC14EB074441EBEB
:101B800017414FEA154714EB0C4441EB1C4125EA81
:101B9000074C02FB07F506FB07F70CFB06F602FBFA
:101BA0000CFC16EB074645EB174516EB0C4645EBD0
:101BB0001C42121951F1000148BF7047B619524139
:101BC00041EB0101A3F1010370474FEA14454FEACD
:101BD000114724EA054621EA074C05FB07F106FBFD
:101BE00007F70CFB06F24FF0000605FB0CFC12EBAE
:101BF000074241EB174112EB0C4251EB1C4148BF2D
:101C00007047921841EB0101A3F1010370477CB5C5
:101C100004460D4600200190BDF8040040F4004049
:101C20000190BDF804000190BDF8040040EA452091
:101C300080B20190BDF8040040F480700190BDF8BE
:101C4000040040EA441080B20190BDF80400019005
:101C5000BDF804000190BDF804000190BDF8040037
:101C600040F003000190BDF804200121482001F05C
:101C70006BFB00BF0121482001F0F0FA0090BDF895
:101C8000000000F400400028F4D07CBD70B504468C
:101C90000E4602212046FFF7BAFF0021482001F03E
:101CA000DDFA05B2A8B270BD08B501211C2001F013
:101CB00089FE10208DF8030003208DF8020049F6FC
:101CC0000110ADF800006946134801F091F80A20B0
:101CD000ADF800006946114801F08AF802208DF83D
:101CE00002004FF46040ADF8000069460C4801F076
:101CF0007FF84FF41941084801F057F90A210748C5
:101D000001F053F90121044801F051F94FF4604109
:101D1000034801F04CF908BD00080140000C0140E7
:101D20000010014010B54FF41941084801F03DF989
:101D30000A21074801F039F90121044801F037F977
:101D40004FF46041034801F032F910BD0008014032
:101D5000000C0140001001402DE9FE4F82468B46E9
:101D60004FF480701749086059465046FFF78EFFC0
:101D700000B20290029803F055FC8046124A134BC1
:101D800003F0A4FC06460022114B03F0F3FA0446CC
:101D900003F00AFA01900F49019804F0ADF880466B
:101DA00003F0B2FE06460C4A0C4B03F0C3FD04469A
:101DB00003F0FAF900904FF0807002490860009833
:101DC000BDE8FE8F10080140FCA9F1D24D62004031
:101DD0000000E040000020419A9999999999D93FD3
:101DE0002DE9FE4F82468B464FF40060174908608C
:101DF00059465046FFF74AFF00B20290029803F09E
:101E000011FC8046124A134B03F060FC0646002288
:101E1000114B03F0AFFA044603F0C6F901900F49E5
:101E2000019804F069F8804603F06EFE06460C4AFD
:101E30000C4B03F07FFD044603F0B6F900904FF021
:101E40000060024908600098BDE8FE8F100801405C
:101E5000FCA9F1D24D6200400000E0400000C84201
:101E60009A9999999999D93F2DE9FE4F82468B46C7
:101E70004FF480501749086059465046FFF706FF57
:101E800000B20290029803F0CDFB8046124A134B39
:101E900003F01CFC06460022114B03F06BFA0446CB
:101EA00003F082F901900F49019804F025F880466B
:101EB00003F02AFE06460C4A0C4B03F03BFD044699
:101EC00003F072F900904FF08050024908600098CA
:101ED000BDE8FE8F10080140FCA9F1D24D62004020
:101EE0000000E04000007A449A9999999999D93F65
:101EF0002DE9FE4F82468B464FF4004012490860A0
:101F000059465046FFF7C2FE00B20290029803F015
:101F100089FB80460D4A0E4B03F0D8FB0646002293
:101F20000C4B03F027FA044603F03EF901900A49EE
:101F3000019803F0E1FF00904FF000400249086073
:101F40000098BDE8FE8F000010080140FCA9F1D206
:101F50004D6200400000E04000401C462DE9FE4F6D
:101F600082468B4608201249086059465046FFF7C2
:101F70008DFE00B20290029803F054FB80460D4A99
:101F80000D4B03F0A3FB064600220C4B03F0F2F9C5
:101F9000044603F009F901900949019803F0ACFFE8
:101FA00000904FF40020024908600098BDE8FE8FC1
:101FB000100C0140FCA9F1D24D6200400000E0404D
:101FC0000050C3472DE9FF5F0446FFF7ABFE4FF01B
:101FD00080403149086100222146042000F0E4F8E5
:101FE0000021482001F03AF900B20290029803F073
:101FF00019FB0746294A2A4B03F068FB0022294BAC
:10200000CDE9000103F0B6F9054603F0CDF80390E1
:102010004FF0000B2FE001220621084600F0C4F823
:102020000021482001F01AF900B20290029803F052
:10203000F9FA1D4A1D4BCDE9000103F047FB0546A7
:102040000022184B03F096F9074603F0ADF88146DD
:102050004946039804F058F80746154903F04CFF29
:102060000646494603F0EAFD0546514603F078FD71
:1020700082460BF1010BBBF1320FCCDB0D49504610
:1020800003F0DCFD82464FF480400349086150466E
:1020900004B0BDE8F09F000000100140FA7E6ABC69
:1020A000749318400000E040FCA9F1D24D6210404A
:1020B00000B80849000048422DE9FF5F0446FFF7D9
:1020C00031FE4FF480303049086000222146042060
:1020D00000F06AF80021482001F0C0F800B2029038
:1020E000029803F09FFA0746284A294B03F0EEFABC
:1020F0000022284BCDE9000103F03CF9054603F02E
:1021000053F803904FF0000B2FE001220621084600
:1021100000F04AF80021482001F0A0F800B2029037
:10212000029803F07FFA1C4A1C4BCDE9000103F032
:10213000CDFA05460022174B03F01CF9074603F0C1
:1021400033F881464946039803F0DEFF07461449F9
:1021500003F0D2FE0646494603F070FD054651469F
:1021600003F0FEFC82460BF1010BBBF1320FCCDB1E
:102170000C49504603F062FD824601200249086086
:10218000504604B0BDE8F09F10080140FA7E6ABCDA
:10219000749318400000E040FCA9F1D24D62104059
:1021A00000E6AA4A000048427CB504460D461646A1
:1021B00000200190BDF8040040F400400190BDF8FB
:1021C000040040EA043080B20190BDF8040040EA07
:1021D000462080B20190BDF8040040F48070019068
:1021E000BDF8040040EA451080B20190BDF804003B
:1021F0000190BDF804000190BDF804000190BDF805
:10220000040040F003000190BDF8042001214820A3
:1022100001F09AF800BF0121482001F01FF800905A
:10222000BDF8000000F400400028F4D07CBD0000A0
:1022300008B50121082001F0C5FB48208DF80300F6
:1022400002208DF80200F020ADF800006946064833
:1022500000F0CEFD4FF44070ADF800006946024832
:1022600000F0C6FD08BD0000000C0140B3E05A4874
:102270000088401C584908804FF48071574800F08E
:102280008BFE38BB564800780F280FD15548007890
:10229000A0280BD154480078401C534908700846C8
:1022A0000078082801DD0120087091E04C48007892
:1022B0000F28FAD14B480078BE28F6D14A4840781A
:1022C000401C49494870084640780428EDDD00204C
:1022D00048707DE04FF40071404800F05DFE60BB47
:1022E0003F480078B42873D13E480078A02802D037
:1022F000BE2816D10AE03C48807818B901203A4936
:10230000887002E000203849887015E03648C078AF
:1023100018B901203449C87002E000203249C87061
:102320000AE03148007918B901202F49087102E00C
:1023300000202D49087100BF4AE04021274800F0E5
:102340002BFE68B927480078A02805DD25480078CD
:102350001E38244908703BE0A0202249087037E06D
:1023600080211E4800F018FED8B91D4800780F28BB
:102370000BD11C4800781E301A49087008460078B6
:10238000BE2825DDBE20087022E0164800781E30E9
:102390001449087008460078DC2819DDDC20087034
:1023A00016E010210D4800F0F7FD30B90F200C4960
:1023B0000870A0200B4908700AE02021074800F0AF
:1023C000EBFD28B9B42006490870A0200549087023
:1023D000142002F051FE4AE71E000020000C0140CC
:1023E00017000020180000201900002001684FF697
:1023F000FE72114001600021016041608160C16096
:102400004B49884208D14A490839496841F00F01CF
:10241000474A083A51608AE045491431884208D158
:1024200043490839496841F0F001414A083A51608E
:102430007DE03F492831884208D13D490839496843
:1024400041F470613A4A083A516070E038493C31D1
:10245000884208D136490839496841F47041344A04
:10246000083A516063E032495031884208D130491E
:102470000839496841F470212D4A083A516056E004
:102480002B496431884208D129490839496841F407
:102490007001274A083A516049E02549783188425D
:1024A00008D123490839496841F07061204A083A47
:1024B00051603CE01F49884206D1011F096841F084
:1024C0000F01021F116032E01A491431884208D10D
:1024D0001849091F096841F0F001164A121F1160DE
:1024E00025E014492831884208D11249091F09689A
:1024F00041F470610F4A121F116018E00D493C3120
:10250000884208D10B49091F096841F47041094A02
:10251000121F11600BE007495031884207D105496D
:10252000091F096841F47021024A121F11607047A7
:10253000080002400804024010B50022026847F675
:10254000F0739A430C6A8B6823430C6923434C69EC
:1025500023438C692343CC6923434C6A23438C6A0D
:1025600023431A430260CB6843600B6883604B6867
:10257000C36010BD2DE9FC4704460E4615464FF0DA
:102580000009FE49304603F083FD13D8FC4930466C
:1025900003F07EFC0ED8032000214FF47843F9A20B
:1025A000CDE900100A2140F21D1001F041F84FF072
:1025B0000209B4E0F449304603F06AFD14D8EF494B
:1025C000491E304603F064FC0ED8032000214FF46E
:1025D0007843ECA2CDE900100A2140F21D1001F071
:1025E00027F84FF001099AE0E849304603F050FD22
:1025F00014D8E5491039304603F04AFC0ED80320C0
:1026000000214FF47843E2A2CDE900100A2140F204
:102610001D1001F00DF84FF0030980E0DD49304650
:1026200003F036FD14D8D9498039304603F030FC28
:102630000ED8032000214FF47843D5A2CDE9001035
:102640000A2140F21D1000F0F3FF4FF0020966E08E
:10265000D149304603F01CFD13D8D049304603F071
:1026600017FC0ED8032000214FF47843C8A2CDE90F
:1026700000100A2140F21D1000F0DAFF4FF00109AE
:102680004DE0C749304603F003FD13D8C549304635
:1026900003F0FEFB0ED8032000214FF47843C2A2C2
:1026A000CDE900100A2140F21D1000F0C1FF4FF0EB
:1026B000030934E0BD49304603F0EAFC13D8BC49B5
:1026C000304603F0E5FB0ED8032000214FF4784399
:1026D000B5A2CDE900100A2140F21D1000F0A8FFBC
:1026E0004FF002091BE0304603F00EFA0746B14AEC
:1026F000B14B03F0E9F812D8B049304603F0C8FBFB
:102700000DD8032000214FF47843A7A2CDE9001093
:102710000A2140F21D1000F08BFF4FF001092078D4
:10272000072804DBA649304603F0B2FC2FD32078FB
:10273000062804D1A349304603F0AAFC27D3207809
:10274000052804D1A049304603F0A2FC1FD320780D
:10275000042804D19D49304603F09AFC17D3207811
:10276000032804D19A49304603F092FC0FD3207815
:10277000022804D19749304603F08AFC07D3207819
:10278000012807D19449304603F082FC02D24FF071
:1027900000093DE02078072804D18A49304603F03B
:1027A00077FB33D32078062804D18749304603F0DD
:1027B0006FFB2BD32078052804D18849304603F0DD
:1027C00067FB23D32078042804D18549304603F0E1
:1027D0005FFB1BD32078032804D18249304603F0E5
:1027E00057FB13D32078022804D17F49304603F0E9
:1027F0004FFB0BD3207801280AD1304603F084F92F
:1028000007466C4A794B02F025FF01D24FF00409CC
:10281000B9F1000F09D0B9F1010F33D0B9F1020FAE
:102820005DD0B9F1030F7DD188E04FF478430B22DE
:102830000521084601F06FFF00227321442002F0B9
:1028400024F94FF47843002205214B2001F063FF67
:102850004FF4784273218A2002F017F94FF478433D
:102860000A220521912001F056FF00227321D02079
:1028700002F00BF94FF478430B220521D72001F029
:102880004AFFF0E02A784FF478430521084601F02A
:1028900042FF4FF478427321442002F0F6F86A7840
:1028A0004FF4784305214B2001F035FF00227321BE
:1028B0008A2002F0EAF8AA784FF4784305219120A3
:1028C00001F029FF00227321D02002F0DEF8EA781F
:1028D0004FF478430521D72001F01DFFC3E02A788B
:1028E0004FF478430521084601F015FF00227321BB
:1028F000442002F0CAF86A784FF4784305214B204F
:1029000001F009FF4FF4784273218A2002F0BDF8EC
:10291000AA784FF478430521912001F0FCFE0022B3
:10292000732100E072E0D02002F0AFF8EA784FF4B3
:1029300078430521D72001F0EEFE94E02A784FF489
:1029400078430521084601F0E6FE00227321442069
:1029500002F09BF86A784FF4784305214B2001F090
:10296000DAFE002273218A2002F08FF8AA784FF451
:1029700078430521912001F0CEFE39E08096184B76
:1029800020BCBE4C4D520000002474490050C34787
:102990004B52000000401C4600007A44003C1C469C
:1029A0000000C84200C079445220000000002041CD
:1029B0000000C6429A9999999999B93F000010412F
:1029C000C0D8A74B0024F4490050434800409C461F
:1029D0000000FA44000048430000A04100803B454D
:1029E000000096430000F041000040409999D93F13
:1029F0004FF478427321D02002F047F8EA784FF480
:102A000078430521D72001F086FE2CE04FF478436F
:102A10000B220521084601F07EFE0022732144208E
:102A200002F033F84FF47843002205214B2001F0E7
:102A300072FE4FF4784273218A2002F026F84FF498
:102A4000784300220521912001F065FE00227321C8
:102A5000D02002F01AF84FF478430B220521D7203A
:102A600001F059FE00BF00BFBDE8FC870EB539E19B
:102A70009D480088401C9C4908809C480078082894
:102A800059D2DFE800F05804101C2834404C0220D2
:102A900000214FF4FC6396A2CDE90010A021232071
:102AA00000F0C6FD53E0022000214FF4FC6393A226
:102AB000CDE90010A021232000F0BAFD47E002205C
:102AC00000214FF4FC6390A2CDE90010A021232047
:102AD00000F0AEFD3BE0022000214FF4FC638DA22C
:102AE000CDE90010A021232000F0A2FD2FE002205C
:102AF00000214FF4FC638AA2CDE90010A02123201D
:102B000000F096FD23E0022000214FF4FC6387A231
:102B1000CDE90010A021232000F08AFD17E002205B
:102B200000214FF4FC6384A2CDE90010A0212320F2
:102B300000F07EFD0BE0022000214FF4FC6381A237
:102B4000CDE90010A021232000F072FD00BF00BFDE
:102B50006648407830B1012810D002281AD00328E6
:102B600030D123E0022000214FF4FC6378A2CDE9AC
:102B70000010BE21232000F05BFD2FE00220002189
:102B80004FF4FC6375A2CDE90010BE21232000F0B4
:102B90004FFD23E0022000214FF4FC6372A2CDE937
:102BA0000010BE21232000F043FD17E00220002189
:102BB0004FF4FC636FA2CDE90010BE21232000F08A
:102BC00037FD0BE0022000214FF4FC636CA2CDE93D
:102BD0000010BE21232000F02BFD00BF00BF4348A2
:102BE000807801280BD1022000214FF4FC6367A2FA
:102BF000CDE90010A021C82000F01AFD0BE0022052
:102C000000214FF4784361A2CDE90010A021C82033
:102C100000F00EFD00BF00BF3448C07801280BD182
:102C2000022000214FF4FC635BA2CDE90010BE211D
:102C3000C82000F0FDFC0BE0022000214FF4784397
:102C400055A2CDE90010BE21C82000F0F1FC00BF64
:102C500000BF2648007901280BD1022000214FF443
:102C6000FC634FA2CDE90010DC21C82000F0E0FC9D
:102C70000BE0022000214FF4784349A2CDE9001077
:102C8000DC21C82000F0D4FC00BF00BF002064237A
:102C90001422A02100900F2000F076FC0020642375
:102CA0001422A0210090B42000F06EFC022000212C
:102CB0004FF6E0733CA2CDE900103C4801783C4857
:102CC000007800F0B5FC3B4802F064F802A93A48ED
:102CD000006802F0DDF902AA374801680348FFF7EF
:102CE00049FC00BFC4E600002000002019000020BD
:102CF0005247533A32302020520000005247533A94
:102D000032303020520000005247533A324B2020DC
:102D1000520000005247533A32304B20520000001C
:102D20005247533A3230304B520000005247533A28
:102D3000324D2020520000005247533A32304D208D
:102D4000520000005247533A204155544F000000B2
:102D50005350533A38202020487A00005350533AB9
:102D600031362020487A00005350533A3332202025
:102D7000487A00005350533A36342020487A0000F5
:102D80005350533A31323820487A0000434F4D2097
:102D9000504F52540000000053442043415244001D
:102DA00047524150482000003E000000180000201B
:102DB00017000020160000201000002005490968B7
:102DC00021F01001034A11601146096801431160A6
:102DD000704700000020024001460020034A1068AE
:102DE00000F03800084310607047000000200240E7
:102DF0002DE9F04102460025002600200023002492
:102E0000002791F803C00CF00F0591F803C00CF0F7
:102E1000100CBCF1000F03D091F802C04CEA05057C
:102E200091F800C0BCF1000F31D0146800202BE0F5
:102E30004FF0010C0CFA00F3B1F800C00CEA0306E5
:102E40009E4220D183004FF00F0C0CFA03F7BC43D5
:102E500005FA03FC4CEA040491F803C0BCF1280F06
:102E600006D14FF0010C0CFA00FCC2F814C00AE0C5
:102E700091F803C0BCF1480F05D14FF0010C0CFADA
:102E800000FCC2F810C0401C0828D1D31460B1F86F
:102E900000C0BCF1FF0F34DD546800202EE000F1CB
:102EA000080C4FF0010808FA0CF3B1F800C00CEA66
:102EB00003069E4221D183004FF00F0C0CFA03F75A
:102EC000BC4305FA03FC4CEA040491F803C0BCF1CE
:102ED000280F05D100F1080C08FA0CF8C2F814808C
:102EE00091F803C0BCF1480F07D100F1080C4FF076
:102EF000010808FA0CF8C2F81080401C0828CED34C
:102F00005460BDE8F0810000F0B50A4600230024BB
:102F10000021002500F00046B6F1004F02D11D4E01
:102F2000F16901E01B4E7168C0F3034583B200F400
:102F30004016B6F5401F08D121F07061154E766835
:102F400026F07066134F7E6012E000F48016B6F52E
:102F5000801F06D1032606FA05F4A14341F07061F3
:102F600006E0460D360103FA06F6B14341F0706102
:102F700022B1460D360103FA06F6314300F0004651
:102F8000B6F1004F02D1034EF16101E0014E7160D4
:102F9000F0BD0000000001400246002093680B4095
:102FA0000BB1012000E000207047416170470161D2
:102FB000704721B1028842F48062028004E00288F6
:102FC0004FF6FF331A400280704770B50246002466
:102FD000002500230020958A138B1B0445EA030675
:102FE00026F07F4404EA01068E4201D1012000E070
:102FF000002070BD21B1028842F00102028004E08D
:1030000002884FF6FE731A400280704710B50446DE
:103010000B48844209D10121480500F0C3FC00217E
:103020004FF4001000F0BEFC08E00121880500F01C
:10303000B9FC00214FF4800000F0B4FC10BD00008A
:103040000054004021B1028842F48072028004E002
:1030500002884FF6FF631A400280704721B1028850
:1030600042F40072028004E002884FF6FF531A40D7
:10307000028070470CB502460020002301930093A4
:1030800000920B0F019321F07F41019B1BB1009B2C
:103090001433009303E0090C009B18330093009B4A
:1030A0001B680B400BB1012000E000200CBD0000AC
:1030B0002DE9F04385B004460D460026B1460427AD
:1030C000DFF8CC80A6884FF6C0700640684600F056
:1030D000CBFCDDF808802F48B8FBF0F01FFA80F930
:1030E00046EA0906A68020884FF6FE710840208037
:1030F00000262949286888420CD828684000B8FB77
:10310000F0F087B2042F00DA04273E4309F10100F2
:10311000208427E0E8884BF6FF71884206D12868B2
:1031200000EB4000B8FBF0F087B209E0286800EB44
:10313000C00101EB0010B8FBF0F087B247F4804704
:10314000C7F30B0008B947F0010747F400400643F6
:103150004FF4967009FB00F04FF47A7190FBF1F098
:10316000401C2084A683208840F00100208026880F
:103170004FF6F5300640A888698908430643268043
:10318000A88929890843208105B0BDE8F0830000A3
:1031900000127A0040420F00A08601000146088A12
:1031A000C0B2704712B141F0010102E04FF6FE7368
:1031B00019400182704701827047000000B585B058
:1031C0000121082000F0FEFB0121084600F0FAFB77
:1031D0000121880500F0E6FB00214FF4800000F09B
:1031E000E1FB4FF440611A48FFF7E1FE4FF4406005
:1031F000ADF8000003208DF802001C208DF80300BC
:1032000069461348FFF7F4FD0121880500F0BAFB79
:103210001048FFF7FBFE0020ADF808004BF6FF70EA
:10322000ADF80A000020ADF80C004FF48060ADF856
:103230000E000001ADF810000748019001A90548F3
:10324000FFF736FF01210348FFF7D4FE05B000BDAC
:10325000000C014000580040A086010070B50446F3
:103260000E46002500BF4FF400313448FFF702FF3F
:103270000028F8D101213148FFF7E4FE00BF3049B2
:103280002E48FFF7A2FE0128F9D16006010E0022A8
:103290002A48FFF787FF00BF2A492848FFF795FE15
:1032A0000128F9D131462548FFF785FF00BF2549A0
:1032B000891C2248FFF789FE0128F8D101211F4807
:1032C000FFF7C0FE00BF1E491C48FFF77EFE012825
:1032D000F9D16006010E01221848FFF763FF00BF15
:1032E0001749491C1548FFF770FE0128F8D1012144
:1032F0001248FFF75EFE00BF11493F310F48FFF74C
:1033000064FE0128F8D10D48FFF748FF05020021AF
:103310000A48FFF74EFE00BF09493F310748FFF753
:1033200054FE0128F8D10548FFF738FF0543012175
:103330000248FFF793FE284670BD00000058004089
:10334000010003008200070070B505460E461446D2
:1033500000BF4FF400312348FFF78CFE0028F8D15E
:1033600001212048FFF76EFE00BF1F491D48FFF7EF
:103370002CFE0128F9D16806010E00221948FFF73A
:1033800011FF00BF19491748FFF71FFE0128F9D1A7
:1033900031461448FFF70FFF00BF1449891C11483C
:1033A000FFF713FE0128F8D121120E48FFF703FFA3
:1033B00000BF0E49891C0B48FFF707FE0128F8D112
:1033C000E1B20848FFF7F7FE00BF0849891C05482D
:1033D000FFF7FBFD0128F8D101210248FFF73EFE6F
:1033E00070BD00000058004001000300820007008B
:1033F0002DE9FF4F85B082468B461446202C01DB19
:103400007E2C02DD09B0BDE8F08FA4F12000C4B22B
:10341000139D00263BE004EB84001F490844805DB7
:10342000029006FB05A080B2049000272BE007FB6A
:1034300005B080B203900120B8400299084008B15D
:10344000089800E0129801904FF0000817E00498E7
:10345000404480B200904FF000090AE003984844CD
:1034600081B2DDE9000200F069F809F1010000F025
:10347000FF09A945F2DB08F1010000F0FF08A845AB
:10348000E5DB781CC7B2082FD1DB701CC6B2052E55
:10349000C1DB00BFB6E70000FA6100082DE9FC5F60
:1034A00004460D4616461F46301B002801DB014628
:1034B00000E041420FFA81F8781B002801DB014649
:1034C00000E041420FFA81F9B44201DA012001E043
:1034D0004FF0FF300190BD4201DA012001E04FF0D2
:1034E000FF300090A8EB09000FFA80FA22E029468D
:1034F00020460C9A00F022F8B44202D1BD4200D11D
:1035000019E04FEA4A000FFA80FBC9F10000834539
:1035100006DDAAEB09000FFA80FA0198204484B274
:10352000C34506DA0AEB08000FFA80FA009828442F
:1035300085B200BFDBE700BFBDE8FC9F70B5044665
:103540000D461646B4F5A07F01DAF02D00DB70BD04
:103550002B4622462946204600F0A2F902210948BE
:10356000FFF723FD08210748FFF721FD301200F087
:1035700067FDF0B200F064FD02210248FFF717FD7D
:1035800000BFE4E7000801402DE9F04704460D467E
:1035900016461F46DDF820802A2000F059F9200A3F
:1035A00000F06AF9E0B200F067F9A119491EC1F311
:1035B000072000F061F9A119491EC8B200F05CF9BA
:1035C0002B2000F045F9280A00F056F9E8B200F087
:1035D00053F9E919491EC1F3072000F04DF9E91923
:1035E000491EC8B200F048F92C2000F031F906FB62
:1035F00007FA02210D48FFF7D8FC08210B48FFF716
:10360000D6FC4FF0000909E04FEA282000F018FD31
:1036100008F0FF0000F014FD09F10109D145F3D3D2
:1036200002210248FFF7C3FCBDE8F0870008014013
:103630002DE9FC4705460F4614469846DDE90A96F3
:103640000CE0CDE900962278434639462846FFF73C
:10365000CFFE062000FB065085B2641C20780028AF
:10366000EFD1BDE8FC87000070B504464FF49636F4
:10367000EF2340F23F120021084600F011F9022129
:103680000B48FFF792FC08210948FFF790FC002542
:1036900006E0201200F0D4FCE0B200F0D1FC6D1C7A
:1036A000B542F6D302210248FFF781FC70BD00004D
:1036B0000008014010B500F0B3F8112000F0C8F880
:1036C000782000F0E9FDC02000F0C2F8232000F0CF
:1036D000D3F8C12000F0BCF8102000F0CDF8C520D0
:1036E00000F0B6F83E2000F0C7F8282000F0C4F83B
:1036F000C72000F0ADF8862000F0BEF8362000F0BC
:10370000A7F8E82000F0B8F83A2000F0A1F855201A
:1037100000F0B2F8B12000F09BF8002000F0ACF807
:10372000182000F0A9F8B62000F092F8082000F068
:10373000A3F8822000F0A0F8272000F09DF8F220E6
:1037400000F086F8002000F097F8262000F080F8BE
:10375000012000F091F8E02000F07AF80F2000F04E
:103760008BF8312000F088F82B2000F085F80C2031
:1037700000F082F80E2000F07FF8082000F07CF8BE
:103780004E2000F079F8F12000F076F8372000F0B4
:1037900073F8072000F070F8102000F06DF8032097
:1037A00000F06AF80E2000F067F8092000F064F8D5
:1037B000002000F061F8E12000F04AF8002000F05D
:1037C0005BF80E2000F058F8142000F055F80320A4
:1037D00000F052F8112000F04FF8072000F04CF8EC
:1037E000312000F049F8C12000F046F8482000F0F0
:1037F00043F8082000F040F80F2000F03DF80C20BE
:1038000000F03AF8312000F037F8362000F034F8B4
:103810000F2000F031F8292000F01AF810BD000048
:1038200010B504210948FFF7C0FB0A2000F034FD61
:1038300004210648FFF7BBFB782000F02DFD012096
:1038400000F006F8052000F027FD10BD000801403B
:1038500010B5044602210748FFF7A7FB08210548D9
:10386000FFF7A3FB204600F0EBFB02210148FFF726
:103870009EFB10BD0008014010B504460221074818
:10388000FFF793FB08210548FFF791FB204600F066
:10389000D7FB02210148FFF78AFB10BD0008014059
:1038A0002DE9F04104460D4616461F462A20FFF733
:1038B000CFFF2012FFF7E0FFE0B2FFF7DDFF30128D
:1038C000FFF7DAFFF0B2FFF7D7FF2B20FFF7C0FFBB
:1038D0002812FFF7D1FFE8B2FFF7CEFF3812FFF74B
:1038E000CBFFF8B2FFF7C8FF2C20FFF7B1FFBDE810
:1038F000F081000070B5002100230F22C47804B3CA
:10390000154C246804F4E064C4F5E064210AC1F1B4
:103910000403CA40447804FA03F184781440214334
:1039200009010E4C0678A155047804F01F05012406
:10393000AC4005786D11AD0005F1E025C5F80041FA
:1039400009E0047804F01F050124AC40044D06781A
:10395000761145F8264070BD0CED00E000E400E073
:1039600080E100E029B1064A52690243044B5A61E2
:1039700004E0034A52698243014B5A6170470000D8
:103980000010024029B1064AD2690243044BDA61B1
:1039900004E0034AD2698243014BDA6170470000B8
:1039A0000010024029B1064A12690243044B1A6111
:1039B00004E0034A12698243014B1A617047000018
:1039C0000010024029B1064A92690243044B9A61F1
:1039D00004E0034A92698243014B9A6170470000F8
:1039E0000010024010B51E48806940F001001C49DB
:1039F000886101211B48FFF787FA4FF4803000F0FF
:103A0000CFF800BF312000F099F80028FAD002204A
:103A1000FFF7E2F91020FFF7D1F94FF4E0114FF46E
:103A2000803000F001F9012000F0F8F800BF3920E3
:103A300000F084F80028FAD0002000F0A5F84FF438
:103A4000806000F0D3F8002000F0DCF8022000F0E5
:103A5000F9F800BF00F090F80828FBD110BD000075
:103A6000001002400002300030B500210022002486
:103A700000232D4D6D6805F00C0121B1042905D0FE
:103A8000082923D105E0294D056022E0274D056076
:103A90001FE0254D6D6805F47012234D6D6805F427
:103AA0008034022505EB92421CB9214D5543056037
:103AB0000BE01D4D6D6805F400351DB11C4D5543DF
:103AC000056002E0194D5543056002E0174D0560A1
:103AD00000BF00BF144D6D6805F0F0010909154DD8
:103AE0006B5C0568DD4045600F4D6D6805F4E06175
:103AF000090A104D6B5C4568DD4085600A4D6D68B4
:103B000005F46051C90A0B4D6B5C4568DD40C5602A
:103B1000054D6D6805F44041890B074D6B5CC56828
:103B2000B5FBF3F5056130BD0010024000127A00CC
:103B300000093D00220000203200002010B501469F
:103B40000022002300204A11012A02D1094C2368D7
:103B500006E0022A02D1074C236A01E0054C636AA1
:103B600001F01F02012494401C400CB1012000E030
:103B7000002010BD001002400248406800F00C0018
:103B8000704700000010024001460020034A5068C0
:103B900020F0F00008435060704700000010024021
:103BA0001149096821F480310F4A116011460968F2
:103BB00021F480211160B0F5803F03D0B0F5802F53
:103BC0000ED106E00849096841F48031064A1160C7
:103BD00007E00549096841F4A021034A116000E0AB
:103BE00000BF00BF704700000010024001460020E7
:103BF000034A506820F4E0600843506070470000BA
:103C00000010024001460020034A506820F4605032
:103C100040EAC10050607047001002400149086648
:103C2000704700000000424202460020044B5868E2
:103C300020F47C1042EA01031843014B586070479E
:103C40000010024001460020034A506820F00300A3
:103C50000843506070470000001002409FE0504849
:103C6000007808283BD2DFE800F03A040C141C244A
:103C70002C334B4948780221FEF76EF84949086019
:103C800088E0474948780221FEF7AAF845490860CC
:103C900080E0434948780221FEF7E6F84149086090
:103CA00078E03F4948780221FEF722F93D49086053
:103CB00070E03B4948780221FEF750F93949086025
:103CC00068E037494878FEF77DF93649086061E0D9
:103CD00033494878FEF7F0F9324908605AE0304934
:103CE0004878FEF7E9F904462F49204602F0D0F95A
:103CF00002D22C4804604DE029494878FEF762F969
:103D000004462A49204602F0C3F902D2254804603D
:103D100040E0234948780221FEF720F9044624496F
:103D2000204602F0B5F902D21E48046032E01C4978
:103D300048780221FEF7DCF804461E49204602F0CE
:103D4000A7F902D21748046024E0154948780221F7
:103D5000FEF78AF804461849204602F099F902D283
:103D60001048046016E00E4948780221FEF738F842
:103D700004461249204602F08BF902D20948046039
:103D800008E0074948780221FDF7E6FF04460548A8
:103D9000046000BF00BF0A4801F052F900BF5EE7AF
:103DA00019000020100000200024F449005043486E
:103DB00000409C460000FA44000048430000A04137
:103DC000160000200BE00648C078012805D1054800
:103DD00000F0E0FF01F042F901E001F03FF9F2E705
:103DE000190000201500002021B1028842F0400295
:103DF000028004E002884FF6BF731A4002807047C9
:103E00001AB183880B43838002E083888B438380CD
:103E100070470246002013890B400BB1012000E0DF
:103E2000002070470146888970478181704710B52E
:103E30000022028802F441520B884C8823438C886C
:103E40002343CC8823430C8923434C8923438C8907
:103E50002343CC8923431A430280838B4FF2FF74A0
:103E6000234083830B8A038210BD10B500F002F853
:103E700010BD00000CB50020019000903348006890
:103E800040F480303149086000BF3048006800F4D9
:103E9000003000900198401C0190009818B90198DA
:103EA000B0F5A06FF1D12948006800F4003010B1DE
:103EB0000120009001E0002000900098012843D1EB
:103EC0002348006840F01000214908600846006857
:103ED00020F0070008600846006840F00200086013
:103EE0001A484068194948600846406848600846D2
:103EF000406840F4806048600846406820F47C10C8
:103F000048600846406840F4E81048600846006889
:103F100040F08070086000BF0C48006800F000703E
:103F20000028F9D00948406820F00300074948609C
:103F30000846406840F00200486000BF03484068FF
:103F400000F00C000828F9D10CBD00000010024060
:103F50000020024000B591B0012141F20400FFF7BA
:103F600031FD01210846FFF7FDFCE020ADF84000DF
:103F700018208DF8430003208DF8420010A92D4829
:103F8000FEF736FF0E20ADF8400010208DF84300FC
:103F900003208DF8420010A92648FEF729FF0020D3
:103FA000ADF82C004FF48270ADF82E000020ADF873
:103FB0003000ADF83200ADF834004FF40070ADF8C9
:103FC00036000820ADF838000020ADF83A00072090
:103FD000ADF83C000BA91848FFF729FF012116484E
:103FE000FFF702FF0E211348FEF7E1FF1348FEF72B
:103FF000FDF911480C300090002001901020029033
:1040000000200390049080200590002006900790E7
:1040100008904FF40050099000200A906946074824
:10402000FEF78AFA012202210348FFF7E9FE11B0E8
:1040300000BD000000080140003001403000024097
:1040400010B5044600BF02210A48FFF7E2FE00282F
:10405000F9D021460748FFF7E8FE00BF01210548D7
:10406000FFF7D7FE0028F9D00248FFF7DBFEC0B209
:1040700010BD0000003001400348006840F080504F
:10408000014908607047000004ED00E010B51348D6
:10409000006840F001001149086008464068104976
:1040A00008400E494860084600680E4908400B4920
:1040B00008600846006820F48020086008464068D0
:1040C00020F4FE0048604FF41F008860FFF7CDFE2B
:1040D0004FF000600449086010BD0000001002406D
:1040E0000000FFF8FFFFF6FE08ED00E010B501212B
:1040F000880700F034F8E8B10121880700F020F8C3
:10410000002013E000EB40010B4A02EB81018968BB
:1041100059B100EB400102EB81018968491E00EBB7
:104120004002054B03EB82029160401C0349096881
:104130008842E7D310BD00003800002008000020AE
:10414000CA430282704721B1028842F00102028014
:1041500004E002884FF6FE731A400280704730B5C3
:104160000246002000230024158A05EA01039589F0
:1041700005EA010413B10CB1012000E0002030BDBC
:104180001AB183890B43838102E083898B43838146
:1041900070470000002202881D4B98420ED01D4B34
:1041A00098420BD0B0F1804F08D01B4B984205D0FD
:1041B0001A4B984202D01A4B984204D14FF68F7393
:1041C0001A404B881A43174B984207D0164B984217
:1041D00004D04FF6FF431A40CB881A4302808B88E5
:1041E00083850B8803850A4B98420BD0094B984274
:1041F00008D00E4B984205D00D4B984202D00D4B83
:10420000984201D10B7A0386012383827047000014
:10421000002C014000340140000400400008004030
:10422000000C00400010004000140040004001401D
:1042300000440140004801401FB501210846FFF736
:10424000A1FB41F61F40ADF804000020ADF80600C8
:104250006320ADF808000020ADF80A008DF80C00CE
:1042600001A94FF08040FFF795FF0122114690070A
:10427000FFF786FF01218807FFF765FF1C208DF8F7
:10428000000001208DF801008DF802008DF8030078
:104290006846FFF72FFB1FBD00B5034603E04FF450
:1042A0007A7000F007F8181EA3F101018BB2F6D165
:1042B00000BD00000021044A118000BF02490988A6
:1042C0008142FBDB70470000240400400EB5012151
:1042D0000220FFF757FB4720ADF800000020ADF8A3
:1042E00002004FF6FF70ADF804000020ADF80600A4
:1042F0008DF8080069460448FFF74CFF0121024889
:10430000FFF721FF0EBD0000000400409BE04E4877
:10431000807801287ED14D4800F03CFD4A48007865
:10432000062805DB4A494B48006801F0B1FE31D34D
:1043300045480078052805D147494648006801F0FE
:10434000A7FE27D340480078042805D143494148B7
:10435000006801F09DFE1DD33B480078032805D17D
:104360003F493C48006801F093FE13D3364800787B
:10437000022805D13B493748006801F089FE09D37E
:1043800031480078012809D137493248006801F0E6
:104390007FFE03D235A000F090F94FE02A48007864
:1043A000062805D12C492B48006801F071FD37D350
:1043B00025480078052805D131492648006801F0D4
:1043C00067FD2DD320480078042805D12D492148C8
:1043D000006801F05DFD23D31B480078032805D158
:1043E00029491C48006801F053FD19D3164800788C
:1043F000022805D125491748006801F049FD0FD36F
:104400001148007801280FD11248006801F07CFBA8
:10441000044600E015E01E4A1E4B01F01BF903D2D2
:104420001DA000F04AF909E003210A48006800F0E5
:1044300039FB044621461DA000F03FF900F00EFEB6
:1044400001E000F00BFE62E71900002014000020DC
:10445000002B5E49100000200050434800409C465D
:104460000000FA44000048430000A041302C302CEA
:10447000302C302C302C4F4C2C302C300A000000CB
:1044800000803B45000096430000F04100004040A2
:104490009A9999999999D93F302C302C302C302CFD
:1044A000302C302E302C302C300A0000302C302CA8
:1044B000302C302C302C25732C302C30200A00006E
:1044C00021B1828942F40052828104E082894DF652
:1044D000FF731A408281704702460020B1F5007FC9
:1044E00000D100BF13880B400BB1012000E0002079
:1044F000704700002DE9F04786B005460E460024BF
:10450000A24600BFA1460027B08900B100BF2F46D8
:104510002C8A4CF6FF700440F08804432C82AC894E
:104520004EF6F3100440B08831890843718908437E
:104530000443AC81AC8A4FF6FF400440B089044389
:10454000AC8201A8FFF790FA1F48874202D1DDF83C
:1045500010A001E0DDF80CA0A88900F4004040B1F3
:104560000AEBCA0000EB0A1031684900B0FBF1F811
:1045700007E00AEBCA0000EB0A1031688900B0FBC3
:10458000F1F86420B8FBF0F004012009642101FB7C
:104590001089A88900F4004040B1322000EBC90026
:1045A000B0FBF1F000F00700044308E0322000EB1C
:1045B00009106421B0FBF1F000F00F0004432C81DE
:1045C00006B0BDE8F087000000380140C1F30802E2
:1045D0008280704708B501210420FFF7F3F94FF4FA
:1045E0000070ADF8000003208DF8020018208DF84F
:1045F000030069460848FEF7FBFB4FF48060ADF806
:10460000000003208DF8020004208DF803006946A5
:104610000148FEF7EDFB08BD0008014000B585B07C
:1046200001218803FFF7CEF9FFF7D4FF4FF4E13003
:1046300001900020ADF80800ADF80A00ADF80C00BC
:104640000C20ADF80E000020ADF8100001A90C48B8
:10465000FFF750FF01210A48FFF732FF25208DF8B0
:10466000000003208DF8010000208DF802000120D9
:104670008DF803006846FFF73DF905B000BD000066
:104680000038014010B5044600BF80210448FFF700
:1046900023FF0028F9D021460148FFF797FF10BDFE
:1046A0000038014010B5044603E014F8010BFFF791
:1046B000E9FF20780028F8D110BD0FB400B5A1B0F3
:1046C00023A80090802101A8009B229AFBF7F6FD09
:1046D0000020009001A8FFF7E5FF21B05DF814FB72
:1046E000490050EAC12018BF04204A0D18BF40F00D
:1046F000010040F2FF72B2EB515F08BF40F00200D0
:10470000012808BF0520704730380A2801D201204F
:104710007047002070472DE9FE4305460C46904641
:104720001E46002001900290B8F10C0F77D2DFE80E
:1047300008F00617293D4F6277899AAABCCE01205E
:104740008DF804008DF805008DF806008DF807003F
:104750008DF808008DF8090000208DF80A00C7E0E8
:1047600000208DF8040001208DF805008DF806006A
:1047700000208DF807008DF808008DF809008DF8ED
:104780000A00B5E001208DF804008DF80500002036
:104790008DF8060001208DF807008DF80800002034
:1047A0008DF8090001208DF80A00A1E001208DF8A4
:1047B00004008DF805008DF806008DF80700002034
:1047C0008DF808008DF8090001208DF80A008FE0AF
:1047D00000208DF8040001208DF805008DF80600FA
:1047E00000208DF807008DF8080001208DF80900E1
:1047F0008DF80A007CE001208DF8040000208DF87F
:10480000050001208DF806008DF8070000208DF8C6
:10481000080001208DF809008DF80A0068E066E0C4
:1048200001208DF8040000208DF8050001208DF88E
:1048300006008DF807008DF808008DF809008DF846
:104840000A0055E001208DF804008DF805008DF870
:10485000060000208DF807008DF808008DF809008B
:104860008DF80A0044E001208DF804008DF8050061
:104870008DF806008DF807008DF808008DF8090006
:104880008DF80A0034E001208DF804008DF8050051
:104890008DF806008DF8070000208DF80800012033
:1048A0008DF809008DF80A0022E000208DF8040040
:1048B0008DF805008DF8060001208DF807008DF8B1
:1048C00008008DF8090000208DF80A0010E0002093
:1048D0008DF804008DF805008DF806008DF80700AE
:1048E0008DF808008DF809008DF80A0000E000BF7F
:1048F00000BF05279DF8040090B1691D88B23B46B2
:10490000322221460096FEF73FFE0020621D91B242
:104910006A1D009090B23B463222FEF735FE09E058
:104920000020691D009088B207F109033222214658
:10493000FEF72AFE9DF8050050B1621D91B205F107
:10494000370290B232233A460096FEF71DFE0AE087
:104950000020621D91B205F13702009090B232231F
:104960003A46FEF711FE9DF8060058B104F13C02EC
:1049700091B205F1370290B232233A460096FEF723
:1049800003FE0BE0002004F13C0291B205F1370276
:10499000009090B232233A46FEF7F6FD9DF80700EC
:1049A000A8B104F16E0291B26A1D90B23B46322268
:1049B0000096FEF7E9FD002004F1730291B26A1D32
:1049C000009090B23B463222FEF7DEFD0AE0002066
:1049D00004F16E0291B26A1D009090B23B1D32222A
:1049E000FEF7D2FD9DF8080048B104F13C0081B209
:1049F00032233A4628460096FEF7C6FD09E000201D
:104A0000009004F13C0081B232233A462846FEF77A
:104A1000BBFD9DF8090040B1601D81B232233A46CA
:104A200028460096FEF7B0FD08E000200090601DCB
:104A300081B232233A462846FEF7A6FD9DF80A00C9
:104A4000A8B104F1370291B26A1D90B23B463222FE
:104A50000096FEF799FD002004F13C0291B26A1D18
:104A6000009090B23B463222FEF78EFD0BE0002014
:104A700004F1370291B26A1D009090B207F1090368
:104A80003222FEF781FDBDE8FE83F8B505460E46ED
:104A9000144605231A46314628460094FEF774FD55
:104AA000F8BD00002DE9F05F06460F46234C304666
:104AB00001F086F90546284601F0BEF981463146E7
:104AC00001F017FB20F000480021304601F0E0F92A
:104AD00005D225B91AA12046FBF720FD04E02A469D
:104AE00018A12046FBF704FC1448FBF73BFD1349D3
:104AF00044182E2004F8010B4FF0000916E012496B
:104B0000404601F0F9F98046404601F059F98246E5
:104B10000AF1300004F8010B504601F08DF983468C
:104B2000414601F0E6FA804609F10109B945E6DBA4
:104B3000002020700148BDE8F09F0000F017002021
:104B40002D30000025640000000020411CB501202C
:104B500073490870002048708870C8700871FEF7AB
:104B600041FFFFF769FBFFF7B1FBFFF757FDFEF7CA
:104B700025FBFDF799F8FDF75BFBFFF7EBF9FEF777
:104B80004FFEFEF797FD0020FEF76EFD4FF47843D1
:104B90000B2205210846FFF7BEFD002273214420A9
:104BA000FFF773FF4FF47843002205214B20FFF7F6
:104BB000B2FD4FF4784273218A20FFF766FF4FF46D
:104BC00078430A2205219120FFF7A5FD00227321D9
:104BD000D020FFF75AFF4FF478430B220521D7204E
:104BE000FFF799FD4FF6FF70812340F23F121946FF
:104BF00000900020FEF752FC4FF6FF70822340F237
:104C00003F12194600900020FEF748FC4FF6FF7057
:104C1000EF23A022812100901046FEF73FFC4FF6C3
:104C2000FF70EF23A122812100901046FEF736FC91
:104C3000022000211F233BA2CDE9001087210A207A
:104C4000FEF7F6FC022000214FF4FC6338A2CDE908
:104C50000010A0212320FEF7EBFC022000214FF4DE
:104C6000FC6336A2CDE90010BE212320FEF7E0FC54
:104C7000022000211F2334A2CDE900108721AF209C
:104C8000FEF7D6FC022000214FF4784331A2CDE993
:104C90000010A021C820FEF7CBFC022000214FF419
:104CA00078432FA2CDE90010BE21C820FEF7C0FC3A
:104CB000022000214FF478432BA2CDE90010DC2123
:104CC000C820FEF7B5FC022000214FF6E07328A2B1
:104CD000CDE90010A0210F20FEF7AAFC00212548F5
:104CE00000F0B9F90021244800F0B5F9002123486B
:104CF00000F0B1F900F0BCF8214800F05BF8214861
:104D000000F058F8204800F055F8204800F052F81C
:104D10001F4800F04FF8012000F0B2F800BFFEE796
:104D20001900002053455454494E47533A0000009F
:104D30005247533A32302020520000005350533A29
:104D400038202020487A00004F5054494F4E533AA3
:104D500000000000434F4D20504F5254000000000F
:104D600053442043415244004752415048200000E0
:104D70003E00000014000020150000201600002056
:104D80006D2A00086D2200085D3C00080D430008F4
:104D9000C53D000800B5024672B603E062B600F0F9
:104DA0005DF972B610780028F8DD1078401E10709A
:104DB00062B600BD10B5044672B62948006800F01E
:104DC0009BF82748006800EB4001C1EBC010254963
:104DD00001EBC000C0F8E0432148006878B92048E2
:104DE000006800EB4000204901EB80001C49096885
:104DF00001EB41011C4A02EB8101486017E01848B1
:104E0000006800EB4000184901EB8001144800687D
:104E1000401E00EB4000144A02EB80004160104647
:104E20000F49096801EB410102EB810148600E481E
:104E30000E4908600A480068401C094908600020C3
:104E400007E0002100EB4002074B03EB8202916078
:104E5000401C034909688842F3D362B6012010BDA3
:104E600008000020800000203800002004000020FE
:104E70000148024908607047401901000000002005
:104E800070B5044600204FF0E021086188611749A1
:104E9000096804FB01F0401E4FF0E021486148170B
:104EA0000021002804DB0A07130E114A135406E000
:104EB0000A07150E0F4A00F00F031B1FD55400BF41
:104EC0004FF0E020006940F004004FF0E02108615D
:104ED0000846006940F0010008610846006940F09A
:104EE00002000861FBF7A6F970BD00000000002079
:104EF00000E400E018ED00E000EB4001C1EBC01160
:104F0000434A02EBC10101F56A7100EB4002414BDB
:104F100043F822104FF0807100EB4002C2EBC01248
:104F20003B4B03EBC202C2F8E4134FF0AA3100EB93
:104F30004002C2EBC01203EBC202C2F8DC1300EB6A
:104F40004002C2EBC01203EBC202C2F8D81300EB5E
:104F50004002C2EBC01203EBC202C2F8D41300EB52
:104F60004002C2EBC01203EBC202C2F8D01300EB46
:104F70004002C2EBC01203EBC202C2F8CC1300EB3A
:104F80004002C2EBC01203EBC202C2F8C81300EB2E
:104F90004002C2EBC01203EBC202C2F8C41300EB22
:104FA0004002C2EBC01203EBC202C2F8C01300EB16
:104FB0004002C2EBC01203EBC202C2F8BC1300EB0A
:104FC0004002C2EBC01203EBC202C2F8B81300EBFE
:104FD0004002C2EBC01203EBC202C2F8B41300EBF2
:104FE0004002C2EBC01203EBC202C2F8B01300EBE6
:104FF0004002C2EBC01203EBC202C2F8AC1300EBDA
:105000004002C2EBC01203EBC202C2F8A813704701
:1050100080000020380000200848006840680749E8
:10502000086004E0054800684068044908600348D7
:10503000006880680028F5D1704700000400002057
:1050400072B60178491C01700178012901DD012146
:10505000017062B6704701707047000000204FF089
:10506000E02188610348006840F0806001490860E1
:105070007047000004ED00E000B5024672B6034838
:105080000068826062B6FFF7E9FF00BD04000020FF
:105090002DE9F04707460D46384600F0ADFE0646BE
:1050A000304600F0E1FE8146394601F022F88046A4
:1050B000002426B900222046641C2A5428E03146E8
:1050C000002203E00A20B1FBF0F1521C0029F9D1C3
:1050D000501E18E001234FF0000C05E003EB83099C
:1050E0004FEA49030CF1010C8445F7DBB6FBF3FCF6
:1050F0004FF00A09BCFBF9FA09FB1ACAA446641C62
:1051000005F80CA0401E002801DB042CE2DB00BFE8
:1051100018E00E49404600F0EFFE8046404600F0A1
:105120006BFEC2B22046641C2A54404600F064FE66
:1051300000F0FF0A504600F097FE8146414600F01D
:10514000D8FF8046042CE4DBBDE8F0870000204156
:1051500010B500290AD00878002807D005487844FF
:10516000FCF746F9002801D0002010BD0248784421
:1051700010BD0000821300007A13000010B5002952
:105180000AD00878002807D005487844FCF730F9A1
:10519000002801D0002010BD0248784410BD000056
:1051A000721300006A13000021F00042A2F1605265
:1051B000B2F5801F01F0004328BFD2F17F6C0BD9FC
:1051C0005FEA001C43EAC20242EB507018BF70470E
:1051D00028BF20F001007047B2F5801FBCBF184601
:1051E00070474FEA410C1CF5001F02D2084600F040
:1051F0004ABF70B500F014FB00000089FFF7F6BF4E
:105200004FF00040A0F580007047000010B591EA13
:10521000030F48BF83F0004300F19483841A71EBBD
:10522000030C05D2121943EB0C03001B61EB0C01BC
:10523000DFF824E14FEA1154A4EB135C1EEA430F9C
:1052400018BF9EEA445F73D023EA0E03DCF1200E00
:1052500021EA045143F4801332D322FA0CFE10EBFE
:105260000E0023FA0CFE41EB0E01CCF1200E03FAE6
:105270000EFE10EB0E0051F10001B1F5801FCCF1D4
:10528000200E32D201EB045112FA0EF2BDE81040AA
:1052900058BF7047401C38BF5FEA420218BF7047D2
:1052A000002814BF20F0010041F100014FEA410342
:1052B00013F5001F38BF7047A1F1C04100F0FEBADE
:1052C000012A43EB0302ACF1200CDCF11F0E32BFCC
:1052D0004FF0000E23FA0CF310EB030041EB0451E6
:1052E000B4EB115FD0D0A1EB045101F58011490856
:1052F0005FEA300001EB04510ED350F1000038BFDB
:1053000012FA0EFE08D1BDE81040C9E7401C38BFB4
:105310005FEA4202CAD1C3E7BDE810404FEA410349
:1053200013F5001F38BF7047A1F1C04100F0C6BAA5
:105330009EEA445F08D011EA5E0FBDE8104004BF4A
:1053400001F0004100207047BDE8104070B500F04A
:1053500067FA00BF64FBBE3E0000E0FF491058BF83
:10536000C1F140415B1058BFC3F140438B42EFF3A2
:10537000008070472DE9C04130B4DFF8A0C23CEA9C
:10538000111418BF3CEA131400F0EC8081EA030505
:105390001CEA111444EAD57418BF1CEA131500F076
:1053A000C780A4EB05044FF0004545EAC12145EA5A
:1053B000C32341EA505143EA525304F17F749942A6
:1053C00004F500344FEAC0204FEAC22208BF9042E1
:1053D00000F09C804FEA13650FF24016765D4FEAAD
:1053E000134506FB05F7C7F1807706FB07F74FEA81
:1053F000D737A7FB03687642C8F58038A7FB06CEEF
:1054000038BFA8F1010807FB08E64FF0000EA6FB25
:10541000028CE6FB03CEDCF1000CCEF1004E38BF6F
:10542000AEF1010EA6FB0C584FF000074FF000053F
:10543000E6FB0E87A1FB08C6A0FB07CE16EB0E0607
:1054400045F10005E1FB076515F1E04E7EBFA4F5CF
:1054500080345FEA46066D4116F1800745F100058C
:105460004FEA17274FEA066647EA0567A6F1DE46C8
:10547000B6F1805F4FEA15251FD9384624F0010C9C
:1054800005EBC471BCF1FE6F01EB0C1102D8F0BC4E
:10549000BDE8008124425CBF01F5801E9EEAC47F06
:1054A00002D4F0BCBDE80081244238D4F0BCA1F1A4
:1054B000C041BDE8004100F001BA4FEAD22242EA01
:1054C00043524FEAD323A7FB02864FEAD02040EA9B
:1054D000415007FB03661EEA0E0F4FEAD12105FB80
:1054E000026658BFA6EB0056B6EB00564FEA520EC6
:1054F0004EEAC37E18EB0E0E56EB530EBDD518EBDD
:1055000002085E417F1C55F10005B6E74FF4801597
:105510004FF000074FF000064FF00008ADE7F0BC79
:105520004FF0000001F1C04101F00041BDE80081F1
:1055300011EA0C1F0CEA131500D00CE013EA0C1F43
:1055400000F025804FF00000F0BC81EA030101F07B
:105550000041BDE80081F0BCBDE8004181EA0301E3
:1055600000F0ACB9F0BCBDE8004170B500F058F9EE
:10557000097EFC3E00F007B881EA03014FF000000D
:1055800001F00041704781EA030100F097B9F0BCD7
:10559000BDE800414FF0000021497047FFFDFBF9D5
:1055A000F7F5F4F2F0EEEDEBE9E8E6E4E3E1E0DE56
:1055B000DDDBDAD8D7D5D4D3D1D0CFCDCCCBCAC8C8
:1055C000C7C6C5C4C2C1C0BFBEBDBCBBBAB9B8B7EF
:1055D000B6B5B4B3B2B1B0AFAEADACABAAA9A8A8E2
:1055E000A7A6A5A4A3A3A2A1A09F9F9E9D9C9C9BB0
:1055F0009A9999989797969595949393929191905B
:105600008F8F8E8E8D8C8C8B8B8A898988888787EB
:105610008685858484838382828181800000FF0760
:105620000000F87F10F0004248BF4042B0FA80F31B
:1056300010FA03F10AD0C3F11D0303F580634FEAAA
:10564000415002EB035202EBD12170474FF00000B2
:105650007047000051EA030C17D41CF5801F58BF97
:10566000BCF5801F00F10680994218BF704708BF43
:105670009042704707D711F5801F58BF13F5801F60
:1056800019D499427047894270471CF5801F08D58C
:10569000BCF5801FF7D58B4218BF704708BF824208
:1056A00070474FF4001C1CEB410F38BF1CEB430F3D
:1056B00001D28B42704770B500F0B2F892244900D5
:1056C0004FF000514FF08053FFF748BEDFF848C15C
:1056D00070B51CEA111E1EBF1CEA13159EEA0C0FC2
:1056E00095EA0C0F00F06F8081EA030423EA4C1363
:1056F0004EEAD47E21EA4C1141F4801143F4801328
:10570000AE44A1FB024CA0FB0365AEF17F7E3619CF
:1057100055EB0C05A1FB034C4CF10003A0FB021C54
:1057200016EB0C06654153F10003094218BF46F021
:10573000010613F4007F0BD14FEA03314FEA053025
:10574000340341EA155140EA16506FF003020AE0B3
:105750004FEAC3214FEAC520F40241EA555140EA1D
:1057600056506FF0020202EB2E4201EB025585EA21
:10577000CE710AD05FEA440C18BF24F0004450F107
:10578000000041F1000120EAD47040F2FE7C624545
:1057900000D270BDA84214BF4FF080444FF0404487
:1057A000002E08BF0024BEF1806FA8BFA1F1C04148
:1057B000BDE8704080F282804FF0000001F1C041EE
:1057C00001F0004170479EEA0C0F0CEA131518BF58
:1057D00095EA0C0F06D04FF0000081EA030E0EF0A0
:1057E000004170BD00F01CF88900013E00F007B8D0
:1057F00000F009B84FEA430C5FEA5C5C08D081EA2C
:10580000030100F05BB84FEA410C5FEA5C5CF6D143
:105810004FF00000014970470000FF070000F87FCB
:105820000EF1020E2EF0030E5EF8046B364205D424
:10583000012A43EB030515F5001F12D8012841EB9F
:10584000010C1CF5001F0CD80ED14FEAD17C15F5C8
:10585000001F0CEB4C0C0CF1020C08BF4CEBD37C82
:1058600004E04FF0080C01E04FEAD37C0CEB4C0550
:1058700026FA05F606F00706B6F1040C06D20EEB82
:10588000860CBDE870404CF0010C6047DFE80CF07E
:10589000090B02024FF000414FF00000A1F500217A
:1058A00070BD19461046012851EB010418BFD4F50C
:1058B000001484BF002001F0004170BD0808A0F56D
:1058C00000114FEA3101704753EA010C17D41CF55F
:1058D000801F58BFBCF5801F00F106808B4218BFA7
:1058E000704708BF8242704707D713F5801F58BF23
:1058F00011F5801F19D48B4270479B4270471CF5ED
:10590000801F08D5BCF5801FF7D5994218BF704796
:1059100008BF904270474FF4001C1CEB430F38BF88
:105920001CEB410F01D2994270470FB40CBC03BC71
:10593000FFF7C1BE10B591EA030F48BF83F00043E3
:105940003FF56CAC841A71EB030C07D212198CF082
:10595000004C43EB0C03001B61EB0C01DFF8A4E1EE
:105960004FEA1154A4EB135C1EEA430F18BF9EEAE2
:10597000445F00F0B08023EA6E03524221EA0451F2
:10598000C3EB6E0338BF5B1EDCF1200E25D322FA79
:105990000CFE10EB0E0043FA0CFE41EB0E01CCF1B5
:1059A000200E03FA0EFE10EB0E0051F10001CCF1B7
:1059B000200E29D412FA0EF201EB0451BDE810407A
:1059C00058BF7047401C1CBFB2F1004F7047002801
:1059D0000CBF491C20F00100704712EB020E43EB94
:1059E000030218BF4FF0010E4EEA4202ACF1200C48
:1059F000DCF11E0E54D943FA0CFE10EB0E0051F1EF
:105A0000FF31CCF11E0ED5D50EF1010E12FA0EFEAD
:105A1000404141EB010101EB445C5FEA5C5C10D961
:105A200010EBDE7001EB045138BFBEF1004FBDE852
:105A3000104018BF704700280CBF491C20F001001F
:105A4000704730D24FEAD42C11F5001124F40064D1
:105A50001BD0B1FA81F20B3AA41AA41ED2F1200392
:105A6000914030FA03F31943904001EBCC71002CC4
:105A700001EB0451BDE81040A8BF704701F1C041DF
:105A80004FF0000001F000417047B0FA80F310FAC7
:105A900003F100D110BDE41A173C4805C90AE4E738
:105AA00001EB045110BD491001EB0451BDE8104059
:105AB0004FEA300002E04FF0000170474A0008BF93
:105AC0000042F8D0B2F5001F28BF704701F0004136
:105AD0004FF0000070479EEA445F07D011EA5E0F66
