:020000040800F2
:10000000701E00207D02000885020008870200089B
:10001000890200088B0200088D0200080000000021
:100020000000000000000000000000008F02000837
:10003000910200080000000053020008E53D00089E
:10004000970200089702000897020008970200082C
:10005000970200089702000897020008970200081C
:10006000970200089702000897020008970200080C
:1000700097020008970200089702000897020008FC
:1000800097020008970200089702000897020008EC
:1000900097020008970200089702000897020008DC
:1000A00097020008970200089702000897020008CC
:1000B000593E0008970200089702000897020008BE
:1000C00097020008970200089702000897020008AC
:1000D000970200089702000897020008970200089C
:1000E00097020008970200089702000800F002F843
:1000F00000F090F80AA090E8000C82448344AAF132
:100100000107DA4501D100F085F8AFF2090EBAE82F
:100110000F0013F0010F18BFFB1A43F0010318473B
:100120001C6100003C610000103A24BF78C878C10F
:10013000FAD8520724BF30C830C144BF04680C60ED
:10014000704700000023002400250026103A28BF35
:1001500078C1FBD8520728BF30C148BF0B60704739
:100160006E2900F0DC82702900F02784662905F0F2
:10017000FE86652905F0FB86672905F0F88661296A
:1001800005F0F78603681B0A28BF41F08001692942
:1001900000F0C480642900F0C180752900F0BE80A1
:1001A0006F2900F0B483782900F0F383E92900F087
:1001B0004F83E42900F04C83F52900F04983EF29AF
:1001C00000F0B183F82900F0F2830368DB0928BF4F
:1001D00041F08001632900F0D787732900F0DC87A4
:1001E000E32900F0E787F32900F0EC87002070474F
:1001F0001FB501F039F804000020002104F00AFFC7
:10020000401C60600020002104F0EEFEE0601FBD95
:1002100010B510BD00F0FAFF1146FFF7E9FF04F03A
:10022000D3FB01F0D7F803B4FFF7F2FF03BC01F0F2
:100230001FF9000010480268D2F800D0BDE8F00FA6
:100240000FBC5DF804CB01B05DF804EB01B062B601
:10025000704772B62DE9F00F07480168C1F800D069
:1002600001B504F025FEBDE801400168D1F800D0D9
:10027000BDE8F00F62B670470400002009488047CF
:1002800009480047FEE7FEE7FEE7FEE7FEE7FEE778
:10029000FEE7FEE7FEE7FEE704480549054A064B90
:1002A00070470000F93D0008ED00000870180020BC
:1002B000701E0020701A0020701A00207CB51D46A8
:1002C00016460C00009001D02044401E074B7B4492
:1002D0002A4669460190304600F03BFA05461CB1BB
:1002E0000020694600F048FA28467CBDB1040000B1
:1002F0000FB41CB5084B06AA7B44694600900598CC
:1003000000F027FA04460020694600F035FA20463E
:100310001CBC5DF814FB00007D0400002DE9F041D9
:100320000646002410687529314616A510D000F045
:1003300062F9002802DA404213A507E031688A0713
:1003400001D512A502E0490704D511A5012401E059
:1003500000F05AF900210A2206F1240709E0B0FB57
:10036000F2FCB0FBF2F302FB1C003030785418466C
:10037000491C0028F3D123462A463046BDE8F04107
:1003800000F074B9000000002D0000002B000000F8
:10039000200000002DE9F05F894604464FF0000A76
:1003A000DFF874B1FB44C0F820A02046E16888471C
:1003B000002874D0252806D0D4E901219047206A6E
:1003C000401C2062F1E700265F462046E16888472E
:1003D0002028054607DB312D05D2781910F8200CAE
:1003E00008B10643F1E7B00701D526F00406C4F8CA
:1003F0001CA00027C4F818A02A2D09D0284604F014
:10040000C1F838B304EB8708303DC8F8185019E03C
:1004100059F8041B204604EB87029161E168884784
:10042000012F054618D1E069002820DA26F02006C1
:100430001DE0D8F8180000EB800005EB40003038D4
:10044000C8F818002046E1688847054604F09AF885
:100450000028EED1012F0AD02E2D08D12046E168C8
:1004600088477F1C0546022F46F02006C4DBA069A2
:10047000002803DA404246F00106A061F00701D0EF
:1004800026F010066C2D0BD0682D09D04C2D39D0DC
:100490006A2D35D0742D35D07A2D33D016E038E062
:1004A000E1682F4620468847B842054609D16C2F9F
:1004B00026D04FF48060E168064320468847054611
:1004C00004E06C2F1AD04FF4807006430DB3A5F1F1
:1004D0004100192802D8203546F400664A462946CC
:1004E000204626604E46FFF73BFE80B101280BD028
:1004F000F61D26F0070000F1080956E74020E4E762
:100500008020D8E70020D6E706F104094DE7284609
:1005100052E7206ABDE8F09F955D000040EA0103C4
:10052000024630B59B0710D14FF0013400E008C2FD
:1005300008C91D1B9D4315EAC41FF8D013F0FF0125
:1005400002F8011B0DD01B0AF8E711F8013B002B44
:1005500002F8013B05D011F8013B002B02F8013BEA
:10056000F3D130BD10B5431C02E010F8011B71B18E
:100570008107FAD14FF0013202C88C1A8C4314EA79
:10058000C211F9D0C01A0A0603D0C01E10BDC01A8D
:1005900010BD0A0401D0801E10BD0902FCD0401E0F
:1005A00010BD70477047704770B504468569006894
:1005B000C10601D5302600E02026C00707D070BD57
:1005C000D4E9012130469047206A401C20626D1E0C
:1005D000F6D570BD70B5044685690078C00707D1AF
:1005E00070BDD4E9012120209047206A401C206280
:1005F0006D1EF6D570BD09684A0501D540B2704739
:10060000C905FCD500B2704709684A0501D5C0B2DA
:100610007047C905FCD580B2704770B50C460546D9
:10062000012A05D02878800600D5EA69002302E077
:10063000012305E05B1C934202D2E05C0028F9D163
:10064000A869E618C01AA861286A184428622846D2
:10065000FFF7AAFF04E0D5E9012114F8010B904748
:10066000B442F8D32846FFF7B5FF70BD2DE9F04737
:100670000D4699469246044600F124080168880612
:1006800004D5E06921F01001216000E00120A842BA
:1006900001DD471B00E00027A1697A1902EB090080
:1006A000081AA0612078C00602D42046FFF77CFF1C
:1006B000002608E0D4E901211AF806009047206AD4
:1006C000401C761C20624E45F4DB2078C0060AD51B
:1006D0002046FFF769FF06E0D4E90121302090476A
:1006E000206A401C2062381EA7F10107F4DC07E0F5
:1006F000D4E9012118F805009047206A401C2062C7
:10070000281EA5F10105F3DC2046FFF763FF2078E2
:10071000000602D50220BDE8F0870120FBE7116842
:100720000268006A530501D508700AE0D30501D5B7
:10073000088006E0130603D5C217C1E9000200E0F5
:10074000086001207047000001694A1C02610878B6
:10075000704700B58FB0CDE9013100210591054901
:100760007944CDE9031011466846FFF713FE0FB038
:1007700000BD0000E5FFFFFF0A6802F8010B0A60F8
:100780007047D1E900239A4202D2531C0B601070CB
:10079000704700002DE9FF5F15468A460446DFF8E2
:1007A000AC80F8440027D8E900103E46CDE900109F
:1007B00010E03AF816106A4602A800F007FD411C46
:1007C00007D02178890603D5E269391891420DD8FE
:1007D0000744761C2078800602D5E069B84205DD22
:1007E000AE42E6DB3AF816000028E2D1A069C01B51
:1007F000A0612046FFF7D8FED8E90010CDE900102F
:10080000002017E03AF818106A4602A800F0DEFC53
:10081000B0F1FF3F81460BD000250DF1080B05E03C
:10082000D4E901211BF8050090476D1C4D45F7D315
:1008300008F10100B0428046E4DB206A38442062BF
:100840002046FFF7C7FEBDE8FF9F0000AA59000041
:100850002DE9F0418046D21D22F007020025D2E9A1
:100860000002F52915A614D0011E72F1000106DA66
:100870000023D0EB030063EB020211A608E0D8F8D6
:1008800000108B0701D50FA602E0490701D50EA67F
:1008900001251146002408F1240704E000F098F82F
:1008A00030323A55641C50EA0102F7D12B463246E9
:1008B00021464046BDE8F041FFF7D8BE00000000E9
:1008C0002D0000002B0000002000000030B40021AB
:1008D00000F1240408E002F00705D208303542EAAE
:1008E0004372DB086554491C52EA0305F3D10468DE
:1008F000002310A2250707D5A40600D421B1C4699E
:1009000001230DA2641EC46130BCFFF7AFBE10B559
:10091000044621461068FFF777FE02462046BDE8F0
:1009200010400023D2E7D21D22F00701D1E90023B5
:10093000CCE700000000000030000000F0B40D46DD
:100940000188090502D5214C7C4402E01F4C7C44FF
:100950000E34002100F1240608E002F00F0712090E
:10096000E75D42EA03721B097754491C52EA030708
:10097000F3D102780023120704D5702D06D009B1F7
:10098000022311342246F0BCFFF770BE012310345D
:10099000F8E770B504460D4621461068FFF734FEAF
:1009A000024629462046BDE870400023C6E7D21D16
:1009B00022F00703D3E90023C0E70368126843F07D
:1009C000200303600823C3610023B7E70C5800002D
:1009D00030B5B0F10A024FEA900E71F100034EEA11
:1009E000817EB0EB0E0061EB91014FEA101E4EEAE2
:1009F000017E10EB0E0041EB11114FEA102E4EEA72
:100A0000016E10EB0E0041EB11214FEA104E4EEA41
:100A1000014E10EB0E0041EB1141401841F1000175
:100A20004FEAD00040EA41704FEAD10110EB800557
:100A30004FEA810444EA907444EB01046D1944EBDD
:100A40000404521BA3414FF0000348BF0A3200D5F3
:100A500030BD401C41F1000130BD70472DE9FF4F12
:100A60000C461E464FF0FF378BB0D2E90001DDF88F
:100A700060800A908A46C1F30A5505B93D460021B7
:100A800008464FF00000BAF1000F00F4400005DA0C
:100A900000EB80004FF4400101EA50004FEA90590A
:100AA000B9F1010F00DDB9460A9850EA4A000ED0AC
:100AB00044F61050A5F2FF3545432F14B8F1000F4E
:100AC0001ED07542291E1EDDC9F100021CE0B8F1DE
:100AD000010F4FF0000001D0302103E0F24305E0A8
:100AE0002154401CB042FBDB30460022002121543F
:100AF0000B99C1F80880C1E900200FB0BDE8F08F64
:100B0000BD1B6D1CDEE74A4600DA694206A800F00C
:100B1000EFFB06AB93E8070003AB83E80700504602
:100B20000A9900F0ACFC8DE80700A0F500501F38D2
:100B300000900398002D0ADD42F21F014A46084446
:100B4000002303A90390684600F015FF09E0A0F513
:100B500000504A461F38002303A90390684600F05E
:100B60001FFF8DE807000004000C03D04FF0FF309A
:100B7000410800E01046B8F1000F03D000220092B7
:100B800015461EE0751E05D4FFF722FF3032625570
:100B90006D1EF9D5B3460122084302D000227F1C06
:100BA00004E02078302801D100227F1E002A099716
:100BB00084D01DE0112D07DAFFF70AFF30326255AD
:100BC0006D1C50EA0102F5D1084302D00098C8B16B
:100BD0000EE00021681E05E0235C625C6354225431
:100BE000401E491C8142F7DBAB46A81B401E099002
:100BF000002004F80B000B98099AC0F80880C0E99F
:100C0000002B7AE711264FF0000857E72DE9F04F47
:100C100088460446D21D22F0070191B0D1E90001B7
:100C2000CDE90A0103F09AFC02460B98C00F01D0EF
:100C30002D2007E02068810701D52B2002E020212C
:100C400001EAC000032A099001D0072A05DB034608
:100C50004146204600F00CFB0BE12078800601D5D0
:100C6000E06900E00620B8F1650F814606D0B8F1D2
:100C7000660F18D0B8F1670F70D131E00020B9F1DC
:100C8000110F009001DB112301E009F101030AAA11
:100C900001A90CA8FFF7E2FEDDE90C70002609F1BE
:100CA0000105834647E001204B4600904FF0004786
:100CB0000AAA01A90CA8FFF7D1FEDDE90DB00C9935
:100CC0005D46002610B909F101000D18B9EB0500C9
:100CD00003D4C0F1FF3609F10105A5EB09002BE0B3
:100CE000B9F1010F01DA4FF001090020B9F1110F3C
:100CF0000090484601DD112300E003460AAA01A93D
:100D00000CA8FFF7ABFEDDE90C704D4600268346CC
:100D1000207800070AD4AB4500DA5D4601A8012D12
:100D200004DD411911F8011C302907D04F4502DAC2
:100D300017F1040F04DA012082460FE06D1EEEE782
:100D4000002F02DCED1B3E4403E0781CA84200DDCE
:100D50007D1CB81B00F1010A4FF000472078000706
:100D600003D4AA4501DB4FF0FF3A0021B7F1004F51
:100D70000DF143088DF8431024D002202B23002FBF
:100D800001DA7F422D230A21021EA0F1010000DCBE
:100D90005FB197FBF1FC97FBF1F201FB1C7C17465E
:100DA0000CF1300C08F801CDEEE7A8F1010003705A
:100DB0002188090501D5452100E06521A0F1010840
:100DC00000F8011C09980FA9A1EB0807FF1D00B14D
:100DD0000120411901EBEA70A1693844081A401E4C
:100DE000A0612078C00602D42046FFF7DDFB0998F9
:100DF00028B1D4E901219047206A401C2062207864
:100E0000C00622D52046FFF7CFFB1EE0002E04DBF4
:100E1000B34502DD01A8805D00E03020D4E9012166
:100E20009047206A401C2062761CAAF101005FEA0C
:100E3000000A0AD100F018FAC0680168405CD4E9E1
:100E400001219047206A401C2062281EA5F101055F
:100E5000DCDC07E0D4E9012118F8010B9047206A97
:100E6000401C2062381EA7F10107F3DC2046FFF783
:100E7000B1FB032011B041E62DE9F04F04460D46C9
:100E8000D21D22F0070089B0D0E9009748463946C4
:100E900003F064FB0246F80F01D02D2307E0206821
:100EA000810701D52B2302E0202101EAC0038DF840
:100EB00020300BB1012000E00020032A824601D03F
:100EC000072A04DB2946204600F0D2F93FE12078CA
:100ED000800601D40D2500E0E569C7F30A560D2D03
:100EE00049DA00214FEA175B08464FF00000002F57
:100EF00000F4400007DA00EB80004FF4400100EB03
:100F0000D07001EA60008115012901DD4FF0FF3149
:100F100000224FEA850CBCF1180F06D31346ACF142
:100F200018004FF08052C24003E04FF4801323FAC0
:100F30000CF30CF10C0CBCF1200F04D3ACF1200C21
:100F400009FA0CF001E007FA0CF000294FF0004814
:100F500001DD18B90FE00ED140450CD319EB0209A1
:100F60005F4121B9404502D19F4329EA0209BBEB09
:100F7000175F00D0761C2088000502D57B48784496
:100F800002E07A487844193808AA302302F80A3077
:100F9000037C0AF10101002E0AF1020A53546A4649
:100FA00002DC4FF0300101E04FF031014FF0010859
:100FB0008DF8001002D0A6F2FF3603E059EA47018F
:100FC00000D06B4E002D02DC2178090704D54FF0CC
:100FD00002082E218DF80110C44600210BE0C7F352
:100FE00003433F01C35C491C6D1E02F8083005290C
:100FF00008F1010801DA002DF1DC00210CE000EB22
:101000001973491C1B786D1E082902F808304FEA35
:10101000091908F1010801DA002DF0DC21688B06BE
:1010200002D516E0A8F10108E04505DD02EB080352
:1010300013F8013C302BF5D0B8F1000F09DD02EBBD
:10104000080313F8013C2E2B03D1090701D4A8F1A2
:101050000108002D05DD3E2102F808106D1E08F183
:101060000108407C002E02F8080008F1010804DAAB
:101070002D20764202F8080002E02B2002F808003A
:101080000A214FF47A70864208F101080BDB96FBC7
:10109000F0F3303302F8083096FBF0F308F1010862
:1010A00000FB136601E0642E0CDB642096FBF0F37A
:1010B000303302F8083096FBF0F308F1010800FB2A
:1010C000136601E00A2E06DB96FBF1F0303002F8E1
:1010D000080008F1010896FBF1F001FB10603030C8
:1010E00002F80800A16908F1010808EB050202EB0B
:1010F0000A00081AA0612078C00602D42046FFF733
:1011000053FA216A08AE01EB0A00206204E0D4E938
:10111000012116F8010B9047BAF1010AF7D22078A5
:10112000C00602D52046FFF73FFA6E4609E016F8E2
:10113000010B3E280FD0D4E901219047206A401CC2
:101140002062B8F10108F2D22046FFF743FA09B055
:101150000320BDE8F08F206A2844206203E0D4E930
:101160000121302090476D1EEBD3F8E711520000AB
:1011700002FCFFFF10B5436913B1AFF3008001E03B
:10118000FFF74BFA012010BD127800F124010A701C
:1011900000224A700122EDE711684FF0FF32E9E7C3
:1011A00010B5436913B1AFF3008001E0FFF7F2FA25
:1011B000012010BD128800F1240182840022C28423
:1011C0000122EDE711684FF0FF32E9E770B51646EE
:1011D0000C46054600F040F8036893F80101012829
:1011E00006D0FF2C0FD8185D68B101202C7070BD9F
:1011F000D3F807013246214603F207130344284679
:10120000BDE8704018474FF0FF3070BD754600F0E4
:10121000EBF8AE4605006946534620F007008546C8
:1012200018B020B5FFF738F8BDE820404FF00006B1
:101230004FF000074FF000084FF0000B21F00701BE
:10124000AC46ACE8C009ACE8C009ACE8C009ACE801
:10125000C0098D467047000010B500F005F8001D6C
:1012600010BD00BFB13D000000487047301800209D
:101270002DE9F0411F46044603260168072A01F4C0
:10128000006004DB08B116A505E016A503E008B16F
:1012900015A500E015A521F010002060A069C01E72
:1012A000A0610FB1401EA0612046FFF77DF94FB14C
:1012B000D4E9012138469047206A401C2062C01CB6
:1012C000206206E0206AFAE7D4E9012115F8010B53
:1012D0009047761EF8D22046FFF77CF9BDE8F081F2
:1012E0004E414E006E616E00494E4600696E6600CA
:1012F0002DE9F047814616468AB0354878440DC836
:101300008DE80D0032487844801C03AC0DC884E899
:101310000D0041F69B300844372190FBF1F290FB21
:10132000F1F5A5F1800501FB12041B3C02D56442D6
:10133000012000E00020DFF898A080460027FA4452
:10134000AAF1BE0A0EE0E0070AD03246684607EB73
:10135000470101230AEB810100F022FB8DE8070021
:1013600064107F1C002CEED1194F7F44AE3F19E072
:10137000E80715D007EB04100DF1180A90E80E00ED
:101380008AE80E00C068F04201D1981908903246F0
:10139000012306A903A800F003FB03AB83E80700C1
:1013A0006D10641C002DE3D14FF0010332466946F5
:1013B000B8F1000F03A802D000F0DDFA01E000F060
:1013C000EFFAC9E90001C9F808200AB0BDE8F087C2
:1013D000244F000010B50446AFF300802046BDE85E
:1013E0001040FEF720BF0000004870471018002092
:1013F0004FF0013C50F8042B51F8043B9A4221D1A4
:10140000A2EB0C03934313EACC1317D150F8042B2F
:1014100051F8043B9A4215D1A2EB0C03934313EA13
:10142000CC130BD150F8042B51F8043B9A4209D14C
:10143000A2EB0C03934313EACC13DBD04FF0000074
:10144000704700BFD01A01BAB1FA81F101F018015A
:1014500022FA01F0CB40C1F12001DBB2C0B2C01AC8
:101460002CFA01F3D11A914311EAC311E6D1704766
:1014700001491820ABBEFEE72600020070475FEA74
:10148000400C08BF91F0000F4FEA8C234FEAC122B5
:1014900043EA51514FEA1C5018BF00F5F0404FEAA3
:1014A000300018BF41F000415FEA6C5C00F0298019
:1014B000BCF1FF3F08BF40F080407047130C06BFEF
:1014C00012044FF0100C4FF0000C130E04BF120268
:1014D0000CF1080C130F04BF12010CF1040C930F54
:1014E00004BF92000CF1020CD30F04BF52000CF1A8
:1014F000010C11464FF00002A0F11F00A0EB0C0000
:10150000704711F0004F08BF704731F000413FF4C1
:10151000D5AF0B0C06BF09044FF0100C4FF0000CB8
:101520000B0E04BF09020CF1080C0B0F04BF0901DC
:101530000CF1040C8B0F04BF89000CF1020CCB0FD3
:1015400004BF49000CF1010CCCF12003A0EB0C000E
:1015500022FA03F302FA0CF241EA030100F101005E
:10156000704720F07F4C80EA030023F07F47ACEB0C
:10157000070303F57C5300F0004003F1FF032DE95E
:1015800080494FEA154B09B44FEA144325EA0B4E44
:1015900024EA03480FF2042606EB132749083E7895
:1015A0005FEA320203FB0667C7F5000707FB06F692
:1015B0004FEA54374FEAD64606F1020607FB066C9F
:1015C000CCF1005C4FEA1C472CEA074C07FB06F401
:1015D0000CFB06F504EB15464FEA961634BF0020C7
:1015E0004FF000404FEAD13706FB07FC4FEA1C4C96
:1015F0000CFB0BF7D21B03FB0CF761EB07010CFB99
:101600000EF7B0EB074072EB17420CFB08F734BF44
:10161000A2EB0742B2EB074261EB17414FEA0C44E1
:101620004FEA910706FB07FC4FEA1C4C0CFB0BF73B
:10163000B0EBC74072EB573203FB0CF734BFA2EBA1
:10164000C742B2EBC74261EB57310CFB0EF7B0EB70
:10165000C70072EB57720CFB08F734BFA2EBC7024E
:10166000B2EBC70261EB5771039F4FEA816141EA18
:10167000921104EBCC044FEAD1374FEA826206FBA9
:1016800007FC42EA90124FEA80604FEA1C4C0CFBC8
:101690000BF7D21B03FB0CF761EB07010CFB0EF7FA
:1016A000B0EB074072EB17420CFB08F734BFA2EB1C
:1016B0000742B2EB074261EB17414FEA8C554FEA04
:1016C000910704EB9C2406FB07FC4FEA1C4C0CFB27
:1016D0000BF7B0EBC74072EB573203FB0CF734BF8C
:1016E000A2EBC742B2EBC74261EB57310CFB0EF7DE
:1016F000B0EBC70072EB57720CFB08F734BFA2EBDC
:10170000C702B2EBC70261EB577115EB4C254FEAEC
:10171000816141EA92114FEA82624FEAD13742EA8F
:10172000901206FB07FC44F100044FEA80604FEA88
:101730001C4C0CFB0BF7D21B03FB0CF761EB0701F6
:101740000CFB0EF7B0EB074072EB17420CFB08F7EF
:1017500034BFA2EB0742B2EB074261EB174115EB36
:101760001C154FEA813141EA92414FEA823242EA46
:1017700090424FEA80304FEA0C7644F1000448EA88
:1017800003434EEA0B484FF0000EB2EB080C71EB2E
:10179000030724BF624639464EEB0E0E4FF0000B96
:1017A0000018524149414BEB0B0BB2EB080C71EBAB
:1017B00003077BF1000B24BF624639464EEB0E0E49
:1017C0004FF0000B0018524149414BEB0B0BB2EBB1
:1017D000080C71EB03077BF1000B24BF624639460E
:1017E0004EEB0E0E51EA020718BF46F0010616EB4B
:1017F0000E7655F1000254F1000103D5BDE88901D0
:10180000BDE80088BDE88901BDE80048B61952412D
:1018100041EB0101A3F10103704780807F7E7D7C55
:101820007B7A7978777676757473727171706F6E72
:101830006E6D6C6C6B6A6A6968686766666564641D
:10184000636362616160605F5F5E5E5D5D5C5C5BA7
:101850005B5A5A5959585857575656555555545416
:10186000535352525251515050504F4F4F4E4E4D74
:101870004D4D4C4C4C4B4B4B4A4A4A4949494848C0
:101880004847474747464646454545444444444300
:1018900043434342424242414141002B9C4630D4A3
:1018A00077002BD01CB54FEA370703B44FF0100078
:1018B0004FF01001BAF1000F06D0BCF1000FDCBFF1
:1018C00040F0080040F008014FF000000FBCBDE8F8
:1018D00010400BF1010BBBF1010F08BF5FEA1707C6
:1018E00022BF12F1010211F101014FF0004143F159
:1018F000000300F0004043EA00007047F9D35708A6
:10190000D0E746EA064613F1400F4FEA16461FDDC0
:1019100013F1200FDFBF16430A46002120335B423C
:10192000BED0C3F1200746EA064602FA07F74FEA9F
:10193000164646EA0706C3F1200722FA03F201FA27
:1019400007F721FA03F14FF0000342EA0702A7E785
:1019500046EA020646EA06464FEA164646EA010607
:10196000BCBF46EA0646360C4FF000034FF00002BB
:101970004FF0000194E72DE9804C9A46934670B4ED
:1019800091E8380007C831EA400C48BF34EA430CFC
:1019900003D5FFF7E6FDFFF780FFF0BCBDE8008C44
:1019A0002DE9804C9A46934670B491E8380007C8F8
:1019B00010F0804F08BF13F0804F03D100F005F8FE
:1019C000FFF76BFFF0BCBDE8008C20F07F4780EA9A
:1019D000030023F07F4C07EB0C03A3F57C5300F0CE
:1019E0000040A3F1FE0392F0000F00F0B38095F0E9
:1019F000000F00F077802DE901494FEA11404FEACE
:101A0000144621EA004800FB06FC24EA064708FBCE
:101A100006F607FB08F800FB07F718EB06484CEB47
:101A2000164C4FEA124B18EB07484FEA15464CEBA1
:101A3000174022EA0B4E0BFB06FC25EA06470EFB7D
:101A400006F607FB0EFE0BFB07F71EEB064E4CEBF4
:101A5000164C4FF000061EEB074E4CEB174B18EBE5
:101A60000B0840F1000018EB0E0B58EB000840F19A
:101A700000008F1A4FF000013CBFC943661B14BF22
:101A8000B5EB040C00213CBFC943F61B4FEA1744D9
:101A90004EEA8E0E27EA04454FEA1C4704FB076214
:101AA0002CEA074C05FB07F70CFB05F604FB0CFCC6
:101AB00016EB074642EB174216EB0C4642EB1C4274
:101AC0001BEB060658EB0202414146EA9E0601D591
:101AD000BDE80189B619524141EB0101A3F10103AF
:101AE000BDE801894FEA14454FEA114724EA05464B
:101AF00021EA074C05FB07F406FB07F70CFB06F190
:101B000005FB0CFC11EB074144EB17444FEA12476D
:101B100011EB0C4144EB1C4422EA074C05FB07F295
:101B200006FB07F70CFB06F605FB0CFC16EB07465D
:101B300042EB174216EB0C4642EB1C456A1854F177
:101B4000000148BF7047B619524141EB0101A3F1B2
:101B50000103704795F0000F37D04FEA11424FEA6A
:101B6000144721EA024624EA074C02FB07F106FB70
:101B700007F70CFB06F402FB0CFC14EB074441EBEB
:101B800017414FEA154714EB0C4441EB1C4125EA81
:101B9000074C02FB07F506FB07F70CFB06F602FBFA
:101BA0000CFC16EB074645EB174516EB0C4645EBD0
:101BB0001C42121951F1000148BF7047B619524139
:101BC00041EB0101A3F1010370474FEA14454FEACD
:101BD000114724EA054621EA074C05FB07F106FBFD
:101BE00007F70CFB06F24FF0000605FB0CFC12EBAE
:101BF000074241EB174112EB0C4251EB1C4148BF2D
:101C00007047921841EB0101A3F1010370477CB5C5
:101C100004460D4600200190BDF8040040F4004049
:101C20000190BDF804000190BDF8040040EA452091
:101C300080B20190BDF8040040F480700190BDF8BE
:101C4000040040EA441080B20190BDF80400019005
:101C5000BDF804000190BDF804000190BDF8040037
:101C600040F003000190BDF804200121482001F05C
:101C7000F1F900BF0121482001F076F90090BDF88C
:101C8000000000F400400028F4D07CBD70B504468C
:101C90000E4602212046FFF7BAFF0021482001F03E
:101CA00063F905B2A8B270BD08B501210C2001F09E
:101CB0000FFD10208DF8030003208DF802004FF473
:101CC0001940ADF800006946094800F017FF0A20E6
:101CD000ADF800006946074800F010FF4FF41941C5
:101CE000034800F0E8FF0A21024800F0E4FF08BDC5
:101CF00000080140000C01402DE9FE4F82468B4652
:101D00004FF480701749086059465046FFF7BEFFF0
:101D100000B20290029803F0D1FB8046124A134BA6
:101D200003F020FC06460022114B03F06FFA044634
:101D300003F086F901900F49019803F09BFF80465C
:101D400003F02EFE06460C4A0C4B03F03FFD044602
:101D500003F076F900904FF0807002490860009817
:101D6000BDE8FE8F10080140FCA9F1D24D62004091
:101D70000000E040000020419A9999999999D93F33
:101D80002DE9FE4F82468B464FF4006017490860EC
:101D900059465046FFF77AFF00B20290029803F0CE
:101DA0008DFB8046124A134B03F0DCFB06460022F3
:101DB000114B03F02BFA044603F042F901900F494E
:101DC000019803F057FF804603F0EAFD06460C4AEF
:101DD0000C4B03F0FBFC044603F032F900904FF08B
:101DE0000060024908600098BDE8FE8F10080140BD
:101DF000FCA9F1D24D6200400000E0400000C84262
:101E00009A9999999999D93F2DE9FE4F82468B4627
:101E10004FF480501749086059465046FFF736FF87
:101E200000B20290029803F049FB8046124A134B1D
:101E300003F098FB06460022114B03F0E7F9044635
:101E400003F0FEF801900F49019803F013FF80465C
:101E500003F0A6FD06460C4A0C4B03F0B7FC044603
:101E600003F0EEF800904FF08050024908600098AF
:101E7000BDE8FE8F10080140FCA9F1D24D62004080
:101E80000000E04000007A449A9999999999D93FC5
:101E90002DE9FE4F82468B464FF400401249086000
:101EA00059465046FFF7F2FE00B20290029803F046
:101EB00005FB80460D4A0E4B03F054FB06460022FC
:101EC0000C4B03F0A3F9044603F0BAF801900A4959
:101ED000019803F0CFFE00904FF0004002490860E7
:101EE0000098BDE8FE8F000010080140FCA9F1D267
:101EF0004D6200400000E04000401C462DE9FE4FCE
:101F000082468B4608201249086059465046FFF722
:101F1000BDFE00B20290029803F0D0FA80460D4A4E
:101F20000D4B03F01FFB064600220C4B03F06EF92D
:101F3000044603F085F801900949019803F09AFEE0
:101F400000904FF40020024908600098BDE8FE8F21
:101F5000100C0140FCA9F1D24D6200400000E040AD
:101F60000050C3472DE9FE4F82468B46022014499C
:101F7000086059465046FFF789FE00B20290029869
:101F800003F09CFA80460F4A0F4B03F0EBFA06462B
:101F900000220E4B03F03AF9044603F051F8019089
:101FA0000B49019803F066FE04460A4903F06AFFF4
:101FB00000904FF40030024908600098BDE8FE8FA1
:101FC000100C0140FCA9F1D24D6200400000E0403D
:101FD000007EE5480050434708B50121082001F084
:101FE00077FB48208DF8030002208DF80200F020D6
:101FF000ADF800006946064800F080FD4FF44070DF
:10200000ADF800006946024800F078FD08BD000008
:10201000000C0140AEE04FF48071574800F042FEE2
:1020200038BB564800780F280FD155480078A028B3
:102030000BD154480078401C52490870084600787B
:10204000072801DD0120087091E04C4800780F2836
:10205000FAD14B480078BE28F6D14A484078401C57
:1020600048494870084640780428EDDD0020487053
:102070007DE04FF40071404800F014FE60BB3F4823
:102080000078B42873D13E480078A02802D0BE283A
:1020900016D10AE03B48807818B901203949887088
:1020A00002E000203749887015E03648C07818B93A
:1020B00001203449C87002E000203249C8700AE0AB
:1020C0003048007918B901202E49087102E000203B
:1020D0002C49087100BF4AE04021274800F0E2FD8A
:1020E00068B927480078A02805DD254800781E3803
:1020F000234908703BE0A0202149087037E0802187
:102100001D4800F0CFFDD8B91C4800780F280BD12E
:102110001B4800781E301A49087008460078BE280F
:1021200025DDBE20087022E0154800781E301449D5
:10213000087008460078DC2819DDDC20087016E0FD
:1021400010210D4800F0AEFD30B90F200B4908708A
:10215000A0200B4908700AE02021074800F0A2FDEA
:1021600028B9B42005490870A0200549087014203A
:1021700002F0CEFE4FE70000000C014017000020E7
:10218000180000201900002001684FF6FE7211406F
:1021900001600021016041608160C1604B4988425B
:1021A00008D14A490839496841F00F01474A083ABD
:1021B00051608AE045491431884208D143490839C1
:1021C000496841F0F001414A083A51607DE03F49D9
:1021D0002831884208D13D490839496841F4706185
:1021E0003A4A083A516070E038493C31884208D197
:1021F00036490839496841F47041344A083A516017
:1022000063E032495031884208D130490839496881
:1022100041F470212D4A083A516056E02B4964314F
:10222000884208D129490839496841F47001274A90
:10223000083A516049E025497831884208D123495C
:102240000839496841F07061204A083A51603CE021
:102250001F49884206D1011F096841F00F01021F82
:10226000116032E01A491431884208D11849091F17
:10227000096841F0F001164A121F116025E0144967
:102280002831884208D11249091F096841F4706158
:102290000F4A121F116018E00D493C31884208D1E5
:1022A0000B49091F096841F47041094A121F116066
:1022B0000BE007495031884207D10549091F0968D9
:1022C00041F47021024A121F116070470800024059
:1022D0000804024010B50022026847F6F0739A43E2
:1022E0000C6A8B6823430C6923434C6923438C6934
:1022F0002343CC6923434C6A23438C6A23431A4308
:102300000260CB6843600B6883604B68C36010BD9C
:102310002DE9FC4704460E4615464FF00009FE49DC
:10232000304603F073FD13D8FC49304603F06EFCD1
:102330000ED2032000214FF47843F9A2CDE900101A
:102340000A2140F21D1000F0F9FF4FF001099AE058
:10235000F449304603F05AFD14D8EF49103930469D
:1023600003F054FC0ED8032000214FF47843EEA272
:10237000CDE900100A2140F21D1000F0DFFF4FF000
:10238000030980E0E949304603F040FD14D8E549EF
:102390008039304603F03AFC0ED8032000214FF478
:1023A0007843E1A2CDE900100A2140F21D1000F0AF
:1023B000C5FF4FF0020966E0DD49304603F026FD17
:1023C00013D8DC49304603F021FC0ED8032000214D
:1023D0004FF47843D4A2CDE900100A2140F21D1039
:1023E00000F0ACFF4FF001094DE0D349304603F057
:1023F0000DFD13D8D149304603F008FC0ED8032058
:1024000000214FF47843CEA2CDE900100A2140F21A
:102410001D1000F093FF4FF0030934E0C949304626
:1024200003F0F4FC13D8C849304603F0EFFB0ED894
:10243000032000214FF47843C1A2CDE900100A2106
:1024400040F21D1000F07AFF4FF002091BE0304609
:1024500003F0A6FA0746BD4ABD4B03F081F912D836
:10246000BC49304603F0D2FB0DD8032000214FF4C5
:102470007843B3A2CDE900100A2140F21D1000F00C
:102480005DFF4FF001092078062804DBB249304691
:1024900003F0BCFC27D32078052804D1AF4930468F
:1024A00003F0B4FC1FD32078042804D1AC49304693
:1024B00003F0ACFC17D32078032804D1A949304697
:1024C00003F0A4FC0FD32078022804D1A64930469B
:1024D00003F09CFC07D32078012807D1A34930469C
:1024E00003F094FC02D24FF0000935E02078062872
:1024F00004D19A49304603F089FB2BD32078052874
:1025000004D19B49304603F081FB23D32078042873
:1025100004D19849304603F079FB1BD32078032877
:1025200004D19549304603F071FB13D3207802287B
:1025300004D19249304603F069FB0BD3207801287F
:102540000AD1304603F02CFA0746804A8C4B02F041
:10255000CDFF01D24FF00409B9F1000F09D0B9F154
:10256000010F33D0B9F1020F5DD0B9F1030F7DD166
:1025700088E04FF478430B220521084602F009F861
:1025800000227321442002F0BEF94FF47843002268
:1025900005214B2001F0FDFF4FF4784273218A2082
:1025A00002F0B1F94FF478430A220521912001F09D
:1025B000F0FF00227321D02002F0A5F94FF47843F8
:1025C0000B220521D72001F0E4FFECE02A784FF43C
:1025D00078430521084601F0DCFF4FF4784273216F
:1025E000442002F090F96A784FF4784305214B209B
:1025F00001F0CFFF002273218A2002F084F9AA782B
:102600004FF478430521912001F0C3FF002273218C
:10261000D02002F078F9EA784FF478430521D720EA
:1026200001F0B7FFBFE02A784FF478430521084650
:1026300001F0AFFF00227321442002F064F96A78B0
:102640004FF4784305214B2001F0A3FF4FF478426B
:1026500073218A2002F057F9AA784FF478430521B4
:10266000912001F096FF0022732100E037E0D02096
:1026700002F049F9EA784FF478430521D72001F0B8
:1026800088FF90E02A784FF478430521084601F04E
:1026900080FF00227321442002F035F96A784FF45C
:1026A000784305214B2001F074FF002273218A201A
:1026B00002F029F9AA784FF478430521912001F01E
:1026C00068FF4FF478427321D02002F01CF9EA78B9
:1026D0004FF478430521D72001F05BFF63E04FF40E
:1026E00078430B220521084601F053FF0022732195
:1026F000442002F008F94FF47843002205214B20D2
:1027000001F047FF4FF4784273218A2002F0FBF872
:102710004FF47843002235E0002474490024F44942
:102720004D5200000050C3474B52000000401C4671
:1027300000007A44003C1C460000C84200C07944B6
:1027400052200000000020410000C6429A99999949
:102750009999B93F00001041002B5E490050434851
:1027600000409C460000FA44000048430000A0419D
:1027700000803B45000096430000F04100004040CF
:102780009999D93F0521912001F003FF002273217F
:10279000D02002F0B8F84FF478430B220521D7205F
:1027A00001F0F7FE00BF00BFBDE8FC870EB528E1D1
:1027B0009448007807284DD2DFE800F04C04101C44
:1027C00028344000022000214FF4FC638EA2CDE9A2
:1027D0000010A021232000F0B1FD47E002200021DD
:1027E0004FF4FC638BA2CDE90010A021232000F060
:1027F000A5FD3BE0022000214FF4FC6388A2CDE957
:102800000010A021232000F099FD2FE002200021DC
:102810004FF4FC6385A2CDE90010A021232000F035
:102820008DFD23E0022000214FF4FC6382A2CDE95C
:102830000010A021232000F081FD17E002200021DC
:102840004FF4FC637FA2CDE90010A021232000F00B
:1028500075FD0BE0022000214FF4FC637CA2CDE962
:102860000010A021232000F069FD00BF00BF6548D3
:10287000407830B1012810D002281AD0032830D176
:1028800023E0022000214FF4FC6374A2CDE9001084
:10289000BE21232000F052FD2FE0022000214FF442
:1028A000FC6371A2CDE90010BE21232000F046FD9B
:1028B00023E0022000214FF4FC636EA2CDE900105A
:1028C000BE21232000F03AFD17E0022000214FF442
:1028D000FC636BA2CDE90010BE21232000F02EFD89
:1028E0000BE0022000214FF4FC6368A2CDE9001048
:1028F000BE21232000F022FD00BF00BF41488078A8
:1029000001280BD1022000214FF4FC6362A2CDE923
:102910000010A021C82000F011FD0BE002200021D2
:102920004FF478435CA2CDE90010A021C82000F04C
:1029300005FD00BF00BF3348C07801280BD102203D
:1029400000214FF4FC6357A2CDE90010BE21C8203E
:1029500000F0F4FC0BE0022000214FF4784351A278
:10296000CDE90010BE21C82000F0E8FC00BF00BF88
:102970002448007901280BD1022000214FF4FC6388
:102980004AA2CDE90010DC21C82000F0D7FC0BE002
:10299000022000214FF4784344A2CDE90010DC214D
:1029A000C82000F0CBFC00BF00BF0020642314222D
:1029B000A02100900F2000F06DFC00206423142261
:1029C000A0210090B42000F065FC022000214FF609
:1029D000E07338A2CDE90010374801783748007815
:1029E00000F0ACFC364802F021F902A93548006835
:1029F00002F09AFA02AA334801680248FFF788FCFD
:102A000000BFD5E6190000205247533A323020204B
:102A1000520000005247533A32303020520000003A
:102A20005247533A324B2020520000005247533A4B
:102A300032304B20520000005247533A3230304B74
:102A4000520000005247533A314D202052000000FE
:102A50005247533A204155544F0000005350533AC7
:102A600038202020487A00005350533A3136202035
:102A7000487A00005350533A33322020487A0000FD
:102A80005350533A36342020487A00005350533A7A
:102A900031323820487A0000434F4D20504F525475
:102AA000000000005344204341524400475241502B
:102AB000482000003E000000180000201700002001
:102AC00016000020100000200549096821F01001BF
:102AD000034A116011460968014311607047000004
:102AE0000020024001460020034A106800F0380030
:102AF0000843106070470000002002402DE9F041BB
:102B0000024600250026002000230024002791F81B
:102B100003C00CF00F0591F803C00CF0100CBCF1D1
:102B2000000F03D091F802C04CEA050591F800C0EF
:102B3000BCF1000F31D0146800202BE04FF0010CE5
:102B40000CFA00F3B1F800C00CEA03069E4220D153
:102B500083004FF00F0C0CFA03F7BC4305FA03FC9B
:102B60004CEA040491F803C0BCF1280F06D14FF0E1
:102B7000010C0CFA00FCC2F814C00AE091F803C082
:102B8000BCF1480F05D14FF0010C0CFA00FCC2F863
:102B900010C0401C0828D1D31460B1F800C0BCF1AB
:102BA000FF0F34DD546800202EE000F1080C4FF0D8
:102BB000010808FA0CF3B1F800C00CEA03069E42C3
:102BC00021D183004FF00F0C0CFA03F7BC4305FA38
:102BD00003FC4CEA040491F803C0BCF1280F05D1B2
:102BE00000F1080C08FA0CF8C2F8148091F803C040
:102BF000BCF1480F07D100F1080C4FF0010808FAAA
:102C00000CF8C2F81080401C0828CED35460BDE8F0
:102C1000F0810000F0B50A460023002400210025C1
:102C200000F00046B6F1004F02D11D4EF16901E0FF
:102C30001B4E7168C0F3034583B200F44016B6F52D
:102C4000401F08D121F07061154E766826F070663D
:102C5000134F7E6012E000F48016B6F5801F06D197
:102C6000032606FA05F4A14341F0706106E0460D23
:102C7000360103FA06F6B14341F0706122B1460D08
:102C8000360103FA06F6314300F00046B6F1004F74
:102C900002D1034EF16101E0014E7160F0BD000010
:102CA000000001400246002093680B400BB1012058
:102CB00000E000207047416170470161704721B119
:102CC000028842F48062028004E002884FF6FF33FB
:102CD0001A400280704770B5024600240025002388
:102CE0000020958A138B1B0445EA030626F07F44D7
:102CF00004EA01068E4201D1012000E0002070BDEF
:102D000021B1028842F00102028004E002884FF6FD
:102D1000FE731A400280704710B504460B48844287
:102D200009D10121480500F0C3FC00214FF4001037
:102D300000F0BEFC08E00121880500F0B9FC00218C
:102D40004FF4800000F0B4FC10BD000000540040BF
:102D500021B1028842F48072028004E002884FF6BA
:102D6000FF631A400280704721B1028842F400726A
:102D7000028004E002884FF6FF531A400280704739
:102D80000CB50246002000230193009300920B0F24
:102D9000019321F07F41019B1BB1009B14330093F1
:102DA00003E0090C009B18330093009B1B680B4049
:102DB0000BB1012000E000200CBD00002DE9F04324
:102DC00085B004460D460026B1460427DFF8CC80C6
:102DD000A6884FF6C0700640684600F0CBFCDDF8D0
:102DE00008802F48B8FBF0F01FFA80F946EA090680
:102DF000A68020884FF6FE710840208000262949D1
:102E0000286888420CD828684000B8FBF0F087B2E8
:102E1000042F00DA04273E4309F10100208427E053
:102E2000E8884BF6FF71884206D1286800EB400025
:102E3000B8FBF0F087B209E0286800EBC00101EBB5
:102E40000010B8FBF0F087B247F48047C7F30B00DF
:102E500008B947F0010747F4004006434FF4967065
:102E600009FB00F04FF47A7190FBF1F0401C2084D4
:102E7000A683208840F00100208026884FF6F53098
:102E80000640A8886989084306432680A8892989BD
:102E90000843208105B0BDE8F083000000127A00ED
:102EA00040420F00A08601000146088AC0B2704768
:102EB00012B141F0010102E04FF6FE7319400182A8
:102EC000704701827047000000B585B001210820DD
:102ED00000F0FEFB0121084600F0FAFB0121880505
:102EE00000F0E6FB00214FF4800000F0E1FB4FF41E
:102EF00040611A48FFF7E1FE4FF44060ADF8000072
:102F000003208DF802001C208DF803006946134849
:102F1000FFF7F4FD0121880500F0BAFB1048FFF728
:102F2000FBFE0020ADF808004BF6FF70ADF80A007C
:102F30000020ADF80C004FF48060ADF80E000001E9
:102F4000ADF810000748019001A90548FFF736FFCA
:102F500001210348FFF7D4FE05B000BD000C01407D
:102F600000580040A086010070B504460E460025BA
:102F700000BF4FF400313448FFF702FF0028F8D1BA
:102F800001213148FFF7E4FE00BF30492E48FFF72A
:102F9000A2FE0128F9D16006010E00222A48FFF79F
:102FA00087FF00BF2A492848FFF795FE0128F9D17D
:102FB00031462548FFF785FF00BF2549891C224877
:102FC000FFF789FE0128F8D101211F48FFF7C0FE55
:102FD00000BF1E491C48FFF77EFE0128F9D160069C
:102FE000010E01221848FFF763FF00BF1749491C73
:102FF0001548FFF770FE0128F8D101211248FFF7AC
:103000005EFE00BF11493F310F48FFF764FE012803
:10301000F8D10D48FFF748FF050200210A48FFF7E5
:103020004EFE00BF09493F310748FFF754FE012813
:10303000F8D10548FFF738FF054301210248FFF7A3
:1030400093FE284670BD00000058004001000300B8
:103050008200070070B505460E46144600BF4FF4C7
:1030600000312348FFF78CFE0028F8D101212048C9
:10307000FFF76EFE00BF1F491D48FFF72CFE012819
:10308000F9D16806010E00221948FFF711FF00BFB1
:1030900019491748FFF71FFE0128F9D13146144896
:1030A000FFF70FFF00BF1449891C1148FFF713FEFB
:1030B0000128F8D121120E48FFF703FF00BF0E4987
:1030C000891C0B48FFF707FE0128F8D1E1B2084838
:1030D000FFF7F7FE00BF0849891C0548FFF7FBFD15
:1030E0000128F8D101210248FFF73EFE70BD000023
:1030F0000058004001000300820007002DE9FF4F47
:1031000085B082468B461446202C01DB7E2C02DDE6
:1031100009B0BDE8F08FA4F12000C4B2139D0026D1
:103120003BE004EB84001F490844805D029006FBED
:1031300005A080B2049000272BE007FB05B080B209
:1031400003900120B8400299084008B1089800E0B7
:10315000129801904FF0000817E00498404480B2A4
:1031600000904FF000090AE00398484481B2DDE97D
:10317000000200F069F809F1010000F0FF09A9451B
:10318000F2DB08F1010000F0FF08A845E5DB781C40
:10319000C7B2082FD1DB701CC6B2052EC1DB00BF41
:1031A000B6E70000765F00082DE9FC5F04460D4697
:1031B00016461F46301B002801DB014600E0414255
:1031C0000FFA81F8781B002801DB014600E041423C
:1031D0000FFA81F9B44201DA012001E04FF0FF302B
:1031E0000190BD4201DA012001E04FF0FF30009074
:1031F000A8EB09000FFA80FA22E0294620460C9A33
:1032000000F022F8B44202D1BD4200D119E04FEAE9
:103210004A000FFA80FBC9F10000834506DDAAEBE6
:1032200009000FFA80FA0198204484B2C34506DAF7
:103230000AEB08000FFA80FA0098284485B200BF14
:10324000DBE700BFBDE8FC9F70B504460D4616469F
:10325000B4F5A07F01DAF02D00DB70BD2B462246CD
:103260002946204600F0A2F902210948FFF723FD74
:1032700008210748FFF721FD301200F083FDF0B26E
:1032800000F080FD02210248FFF717FD00BFE4E7D0
:10329000000801402DE9F04704460D4616461F463A
:1032A000DDF820802A2000F059F9200A00F06AF9A0
:1032B000E0B200F067F9A119491EC1F3072000F040
:1032C00061F9A119491EC8B200F05CF92B2000F089
:1032D00045F9280A00F056F9E8B200F053F9E91967
:1032E000491EC1F3072000F04DF9E919491EC8B283
:1032F00000F048F92C2000F031F906FB07FA022112
:103300000D48FFF7D8FC08210B48FFF7D6FC4FF01B
:10331000000909E04FEA282000F034FD08F0FF0022
:1033200000F030FD09F10109D145F3D30221024833
:10333000FFF7C3FCBDE8F087000801402DE9FC471A
:1033400005460F4614469846DDE90A960CE0CDE99D
:1033500000962278434639462846FFF7CFFE0620DE
:1033600000FB065085B2641C20780028EFD1BDE830
:10337000FC87000070B504464FF49636EF2340F208
:103380003F120021084600F011F902210B48FFF717
:1033900092FC08210948FFF790FC002506E0201266
:1033A00000F0F0FCE0B200F0EDFC6D1CB542F6D38D
:1033B00002210248FFF781FC70BD000000080140B7
:1033C00010B500F0B3F8112000F0C8F8782000F034
:1033D00019FEC02000F0C2F8232000F0D3F8C1206D
:1033E00000F0BCF8102000F0CDF8C52000F0B6F8D1
:1033F0003E2000F0C7F8282000F0C4F8C72000F0F5
:10340000ADF8862000F0BEF8362000F0A7F8E820DE
:1034100000F0B8F83A2000F0A1F8552000F0B2F81A
:10342000B12000F09BF8002000F0ACF8182000F06C
:10343000A9F8B62000F092F8082000F0A3F8822046
:1034400000F0A0F8272000F09DF8F22000F086F8A8
:10345000002000F097F8262000F080F8012000F00E
:1034600091F8E02000F07AF80F2000F08BF831207E
:1034700000F088F82B2000F085F80C2000F082F88E
:103480000E2000F07FF8082000F07CF84E2000F0BD
:1034900079F8F12000F076F8372000F073F8072073
:1034A00000F070F8102000F06DF8032000F06AF8CA
:1034B0000E2000F067F8092000F064F8002000F00A
:1034C00061F8E12000F04AF8002000F05BF80E20DF
:1034D00000F058F8142000F055F8032000F052F8DE
:1034E000112000F04FF8072000F04CF8312000F0D8
:1034F00049F8C12000F046F8482000F043F80820C1
:1035000000F040F80F2000F03DF80C2000F03AF8F1
:10351000312000F037F8362000F034F80F2000F0AA
:1035200031F8292000F01AF810BD000010B5042170
:103530000948FFF7C0FB0A2000F064FD042106489B
:10354000FFF7BBFB782000F05DFD012000F006F8DE
:10355000052000F057FD10BD0008014010B50446DD
:1035600002210748FFF7A7FB08210548FFF7A3FB47
:10357000204600F007FC02210148FFF79EFB10BD2A
:103580000008014010B5044602210748FFF793FBED
:1035900008210548FFF791FB204600F0F3FB0221CC
:1035A0000148FFF78AFB10BD000801402DE9F041FA
:1035B00004460D4616461F462A20FFF7CFFF20126D
:1035C000FFF7E0FFE0B2FFF7DDFF3012FFF7DAFFB1
:1035D000F0B2FFF7D7FF2B20FFF7C0FF2812FFF74D
:1035E000D1FFE8B2FFF7CEFF3812FFF7CBFFF8B2FA
:1035F000FFF7C8FF2C20FFF7B1FFBDE8F081000006
:1036000070B5002100230F22C47804B3154C246840
:1036100004F4E064C4F5E064210AC1F10403CA4083
:10362000447804FA03F184781440214309010E4CD4
:103630000678A155047804F01F050124AC400578F4
:103640006D11AD0005F1E025C5F8004109E00478F1
:1036500004F01F050124AC40044D0678761145F8AE
:10366000264070BD0CED00E000E400E080E100E0E9
:1036700029B1064A52690243044B5A6104E0034AE5
:1036800052698243014B5A617047000000100240AA
:1036900029B1064AD2690243044BDA6104E0034AC5
:1036A000D2698243014BDA6170470000001002408A
:1036B00029B1064A12690243044B1A6104E0034A25
:1036C00012698243014B1A617047000000100240EA
:1036D00029B1064A92690243044B9A6104E0034A05
:1036E00092698243014B9A617047000000100240CA
:1036F00010B51E48806940F001001C498861012115
:103700001B48FFF787FA4FF4803000F0CFF800BF76
:10371000312000F099F80028FAD00220FFF7E2F9F2
:103720001020FFF7D1F94FF4E0114FF4803000F092
:1037300001F9012000F0F8F800BF392000F084F80A
:103740000028FAD0002000F0A5F84FF4806000F0C7
:10375000D3F8002000F0DCF8022000F0F9F800BFF8
:1037600000F090F80828FBD110BD000000100240C6
:103770000002300030B500210022002400232D4D2E
:103780006D6805F00C0121B1042905D0082923D169
:1037900005E0294D056022E0274D05601FE0254D1D
:1037A0006D6805F47012234D6D6805F480340225B0
:1037B00005EB92421CB9214D554305600BE01D4DB0
:1037C0006D6805F400351DB11C4D5543056002E0E0
:1037D000194D5543056002E0174D056000BF00BF5D
:1037E000144D6D6805F0F0010909154D6B5C056815
:1037F000DD4045600F4D6D6805F4E061090A104D2C
:103800006B5C4568DD4085600A4D6D6805F460516C
:10381000C90A0B4D6B5C4568DD40C560054D6D68A0
:1038200005F44041890B074D6B5CC568B5FBF3F5AA
:10383000056130BD0010024000127A0000093D0011
:10384000220000203200002010B501460022002393
:1038500000204A11012A02D1094C236806E0022AFD
:1038600002D1074C236A01E0054C636A01F01F0294
:10387000012494401C400CB1012000E0002010BD48
:10388000001002400248406800F00C007047000041
:103890000010024001460020034A506820F0F0006A
:1038A0000843506070470000001002401149096849
:1038B00021F480310F4A11601146096821F48021FA
:1038C0001160B0F5803F03D0B0F5802F0ED106E037
:1038D0000849096841F48031064A116007E005494A
:1038E000096841F4A021034A116000E000BF00BF55
:1038F000704700000010024001460020034A506853
:1039000020F4E0600843506070470000001002405F
:1039100001460020034A506820F4605040EAC1008C
:10392000506070470010024001490866704700006F
:103930000000424202460020044B586820F47C10EC
:1039400042EA01031843014B5860704700100240DF
:1039500001460020034A506820F0030008435060ED
:103960007047000000100240B2E05A480078072873
:1039700069D1062564E0072D59D2DFE805F0580427
:103980000D1C2B3A4900534948780221FEF7B4F93F
:103990000446514804604AE04E4948780221FEF747
:1039A000EFF904464D49204602F030F900D23EE0DE
:1039B000494804603BE0474948780221FEF724FA71
:1039C00004464749204602F021F900D22FE0424840
:1039D00004602CE03F4948780221FEF759FA04467A
:1039E0004049204602F012F900D220E03A48046033
:1039F0001DE0384948780221FEF780FA04463A492A
:103A0000204602F003F900D211E0334804600EE0D2
:103A1000304948780221FEF7A5FA0446334920468A
:103A200002F0F4F800D202E02B48046000BF00BFAF
:103A300021462948006802F04DF800D102E06D1ED1
:103A4000002D98DC3AE023480078072835D2DFE8DB
:103A500000F034040C141C242C001E494878022168
:103A6000FEF74AF91C49086027E01A494878022104
:103A7000FEF786F9184908601FE0164948780221C8
:103A8000FEF7C2F91449086017E01249487802218C
:103A9000FEF7FEF9104908600FE00E494878022150
:103AA000FEF72CFA0C49086007E00A494878022121
:103AB000FEF758FA0849086000BF00BF0C4801F043
:103AC0000BFA0C4801F008FA0B4801F005FA00BFA8
:103AD0004BE7000019000020100000200000A0416A
:103AE000000048430000FA4400409C460050434810
:103AF0001600002014000020150000200BE00648EE
:103B0000C078012805D1054801F090F801F0F2F9DC
:103B100001E001F0EFF9F2E71900002015000020A4
:103B200021B1028842F04002028004E002884FF690
:103B3000BF731A40028070471AB183880B43838099
:103B400002E083888B4383807047024600201389FC
:103B50000B400BB1012000E000207047014688892E
:103B600070478181704710B50022028802F44152EB
:103B70000B884C8823438C882343CC8823430C89AF
:103B800023434C8923438C892343CC8923431A4301
:103B90000280838B4FF2FF74234083830B8A03825E
:103BA00010BD10B500F002F810BD00000CB50020EB
:103BB000019000903348006840F48030314908603B
:103BC00000BF3048006800F4003000900198401CAD
:103BD0000190009818B90198B0F5A06FF1D129486B
:103BE000006800F4003010B10120009001E00020D6
:103BF00000900098012843D12348006840F010004D
:103C0000214908600846006820F00700086008465F
:103C1000006840F0020008601A484068194948608E
:103C20000846406848600846406840F48060486044
:103C30000846406820F47C1048600846406840F41C
:103C4000E81048600846006840F08070086000BFD7
:103C50000C48006800F000700028F9D0094840685E
:103C600020F00300074948600846406840F0020021
:103C7000486000BF0348406800F00C000828F9D1F4
:103C80000CBD0000001002400020024000B591B0C1
:103C9000012141F20400FFF71BFD01210846FFF757
:103CA000E7FCE020ADF8400018208DF84300032029
:103CB0008DF8420010A92D48FEF720FF0E20ADF828
:103CC000400010208DF8430003208DF8420010A919
:103CD0002648FEF713FF0020ADF82C004FF4827049
:103CE000ADF82E000020ADF83000ADF83200ADF890
:103CF00034004FF40070ADF836000820ADF83800FD
:103D00000020ADF83A000720ADF83C000BA9184898
:103D1000FFF729FF01211648FFF702FF0E21134884
:103D2000FEF7CBFF1348FEF72FFA11480C30009036
:103D30000020019010200290002003900490802029
:103D4000059000200690079008904FF400500990CD
:103D500000200A9069460748FEF7BCFA01220221BA
:103D60000348FFF7E9FE11B000BD00000008014064
:103D7000003001403000024010B5FF2000F002F892
:103D800010BD000010B5044600BF02210A48FFF72D
:103D9000DCFE0028F9D021460748FFF7E2FE00BF0D
:103DA00001210548FFF7D1FE0028F9D00248FFF7AE
:103DB000D5FEC0B210BD00000030014010B5044671
:103DC0000748008820F03800054908800846008828
:103DD0002043088001210248FFF7A2FE10BD000029
:103DE000003001400348006840F0805001490860FD
:103DF0007047000004ED00E010B51348006840F083
:103E000001001149086008464068104908400E4901
:103E10004860084600680E4908400B49086008469B
:103E2000006820F4802008600846406820F4FE0006
:103E300048604FF41F008860FFF7B3FE4FF000604A
:103E40000449086010BD0000001002400000FFF8A7
:103E5000FFFFF6FE08ED00E010B50121880700F035
:103E600034F8E8B10121880700F020F8002013E0C1
:103E700000EB40010B4A02EB8101896859B100EB6C
:103E8000400102EB81018968491E00EB4002054BAD
:103E900003EB82029160401C034909688842E7D322
:103EA00010BD00003800002008000020CA43028234
:103EB000704721B1028842F00102028004E00288CA
:103EC0004FF6FE731A400280704730B5024600205C
:103ED00000230024158A05EA0103958905EA0104F7
:103EE00013B10CB1012000E0002030BD1AB183896C
:103EF0000B43838102E083898B43838170470000F9
:103F0000002202881D4B98420ED01D4B98420BD0C8
:103F1000B0F1804F08D01B4B984205D01A4B984205
:103F200002D01A4B984204D14FF68F731A404B8837
:103F30001A43174B984207D0164B984204D04FF6BD
:103F4000FF431A40CB881A4302808B8883850B88F5
:103F500003850A4B98420BD0094B984208D00E4B70
:103F6000984205D00D4B984202D00D4B984201D19A
:103F70000B7A03860123838270470000002C0140E6
:103F8000003401400004004000080040000C0040E4
:103F90000010004000140040004001400044014077
:103FA000004801401FB501210846FFF771FB41F6AB
:103FB0001F40ADF804000020ADF806006320ADF806
:103FC00008000020ADF80A008DF80C0001A94FF0A0
:103FD0008040FFF795FF012211469007FFF786FF0B
:103FE00001218807FFF765FF1C208DF800000120E4
:103FF0008DF801008DF802008DF803006846FFF788
:10400000FFFA1FBD00B5034603E04FF47A7000F0DD
:1040100007F8181EA3F101018BB2F6D100BD000014
:104020000021044A118000BF024909888142FBDB5C
:1040300070470000240400400EB501210220FFF764
:1040400027FB4720ADF800000020ADF802004FF636
:10405000FF70ADF804000020ADF806008DF80800F0
:1040600069460448FFF74CFF01210248FFF721FF92
:104070000EBD00000004004008B501210C20FFF730
:1040800027FB1020ADF800008DF8030003208DF809
:10409000020069460848FEF731FD10210648FEF788
:1040A0000CFE0120ADF8000004208DF803006946E5
:1040B0000248FEF723FD08BD00080140000C014046
:1040C00010B501210348FEF7EDFD08B9012010BD30
:1040D0000020FCE7000C01402DE9F04106460F46A8
:1040E000902000F017FA0446D02000F013FA05469D
:1040F000642C00DA6424B4F5006F01DB40F2FF7435
:10410000A4F16400C0EB801101EB002040F29B7130
:10411000B0FBF1F03080642D00DA6425B5F5006F56
:1041200001DB40F2FF75A5F1640000EB0011C1EB6B
:10413000002040F29B71B0FBF1F03880BDE8F081C7
:104140009BE04E48807801287ED14D4800F06EFDFE
:104150004A480078062805DB4A494B48006801F0C8
:1041600055FE31D345480078052805D147494648D2
:10417000006801F04BFE27D340480078042805D1A1
:1041800043494148006801F041FE1DD33B48007897
:10419000032805D13F493C48006801F037FE13D39E
:1041A00036480078022805D13B493748006801F0BD
:1041B0002DFE09D331480078012809D1374932480A
:1041C000006801F023FE03D235A000F090F94FE023
:1041D0002A480078062805D12C492B48006801F0B0
:1041E00015FD37D325480078052805D131492648E3
:1041F000006801F00BFD2DD320480078042805D17C
:104200002D492148006801F001FD23D31B480078A7
:10421000032805D129491C48006801F0F7FC19D38F
:1042200016480078022805D125491748006801F092
:10423000EDFC0FD31148007801280FD11248006817
:1042400001F0AEFB044600E015E01E4A1E4B01F0F3
:104250004DF903D21DA000F04AF909E003210A48F4
:10426000006800F05DFB044621461DA000F03FF908
:1042700000F040FE01E000F03DFE62E71900002082
:1042800014000020002B5E4910000020005043481D
:1042900000409C460000FA44000048430000A04152
:1042A000302C302C302C302C302C4F4C2C302C30EF
:1042B0000A00000000803B45000096430000F041EA
:1042C000000040409A9999999999D93F302C302C07
:1042D000302C302C302C302E302C302C300A00007A
:1042E000302C302C302C302C302C25732C302C30B2
:1042F000200A000021B1828942F40052828104E048
:1043000082894DF6FF731A40828170470246002071
:10431000B1F5007F00D100BF13880B400BB1012025
:1043200000E00020704700002DE9F04786B0054608
:104330000E460024A24600BFA1460027B08900B166
:1043400000BF2F462C8A4CF6FF700440F0880443CF
:104350002C82AC894EF6F3100440B08831890843B2
:10436000718908430443AC81AC8A4FF6FF40044096
:10437000B0890443AC8201A8FFF7FCF91F488742CB
:1043800002D1DDF810A001E0DDF80CA0A88900F44E
:10439000004040B10AEBCA0000EB0A103168490046
:1043A000B0FBF1F807E00AEBCA0000EB0A10316835
:1043B0008900B0FBF1F86420B8FBF0F0040120099B
:1043C000642101FB1089A88900F4004040B132202B
:1043D00000EBC900B0FBF1F000F00700044308E077
:1043E000322000EB09106421B0FBF1F000F00F0067
:1043F00004432C8106B0BDE8F0870000003801407E
:10440000C1F308028280704708B501210420FFF73C
:104410005FF94FF40070ADF8000003208DF8020042
:1044200018208DF8030069460848FEF767FB4FF433
:104430008060ADF8000003208DF8020004208DF8A4
:10444000030069460148FEF759FB08BD000801401A
:1044500000B585B001218803FFF73AF9FFF7D4FFD3
:104460004FF4E13001900020ADF80800ADF80A00EB
:10447000ADF80C000C20ADF80E000020ADF81000D7
:1044800001A90C48FFF750FF01210A48FFF732FF4E
:1044900025208DF8000003208DF8010000208DF804
:1044A000020001208DF803006846FFF7A9F805B067
:1044B00000BD00000038014010B5044600BF802157
:1044C0000448FFF723FF0028F9D021460148FFF7F1
:1044D00097FF10BD0038014010B5044603E014F802
:1044E000010BFFF7E9FF20780028F8D110BD0FB4C9
:1044F00000B5A1B023A80090802101A8009B229ABA
:10450000FBF7DCFE0020009001A8FFF7E5FF21B0DB
:104510005DF814FB70B505462020FFF74FFC002422
:1045200002210D48FEF7C9FB10210B48FEF7C3FB23
:104530002846FFF727FCFFF71FFC0402FFF71CFCCF
:104540000443241110210448FEF7B7FB0820FFF7AD
:1045500035FC204670BD000000080140490050EACB
:10456000C12018BF04204A0D18BF40F0010040F2DE
:10457000FF72B2EB515F08BF40F00200012808BF94
:104580000520704730380A2801D2012070470020EA
:1045900070472DE9FE4305460C4690461E46002016
:1045A00001900290B8F10C0F77D2DFE808F00617FF
:1045B000293D4F6277899AAABCCE01208DF804006C
:1045C0008DF805008DF806008DF807008DF80800BD
:1045D0008DF8090000208DF80A00C7E000208DF852
:1045E000040001208DF805008DF8060000208DF8EC
:1045F00007008DF808008DF809008DF80A00B5E075
:1046000001208DF804008DF8050000208DF80600CB
:1046100001208DF807008DF8080000208DF80900B2
:1046200001208DF80A00A1E001208DF804008DF82A
:1046300005008DF806008DF8070000208DF80800B1
:104640008DF8090001208DF80A008FE000208DF818
:10465000040001208DF805008DF8060000208DF87B
:1046600007008DF8080001208DF809008DF80A0078
:104670007CE001208DF8040000208DF80500012069
:104680008DF806008DF8070000208DF80800012045
:104690008DF809008DF80A0068E066E001208DF8C9
:1046A000040000208DF8050001208DF806008DF82B
:1046B00007008DF808008DF809008DF80A0055E014
:1046C00001208DF804008DF805008DF8060000200B
:1046D0008DF807008DF808008DF809008DF80A00A4
:1046E00044E001208DF804008DF805008DF80600E7
:1046F0008DF807008DF808008DF809008DF80A0084
:1047000034E001208DF804008DF805008DF80600D6
:104710008DF8070000208DF8080001208DF80900B1
:104720008DF80A0022E000208DF804008DF80500C5
:104730008DF8060001208DF807008DF808008DF82F
:10474000090000208DF80A0010E000208DF8040018
:104750008DF805008DF806008DF807008DF808002B
:104760008DF809008DF80A0000E000BF00BF0527A2
:104770009DF8040090B1691D88B23B463222214663
:104780000096FEF787FD0020621D91B26A1D009021
:1047900090B23B463222FEF77DFD09E00020691D04
:1047A000009088B207F1090332222146FEF772FD1C
:1047B0009DF8050050B1621D91B205F1370290B22B
:1047C00032233A460096FEF765FD0AE00020621D9E
:1047D00091B205F13702009090B232233A46FEF7CB
:1047E00059FD9DF8060058B104F13C0291B205F163
:1047F000370290B232233A460096FEF74BFD0BE0AB
:10480000002004F13C0291B205F13702009090B211
:1048100032233A46FEF73EFD9DF80700A8B104F1A9
:104820006E0291B26A1D90B23B4632220096FEF7AC
:1048300031FD002004F1730291B26A1D009090B224
:104840003B463222FEF726FD0AE0002004F16E020C
:1048500091B26A1D009090B23B1D3222FEF71AFD04
:104860009DF8080048B104F13C0081B232233A4679
:1048700028460096FEF70EFD09E00020009004F1A6
:104880003C0081B232233A462846FEF703FD9DF8EC
:10489000090040B1601D81B232233A462846009695
:1048A000FEF7F8FC08E000200090601D81B2322382
:1048B0003A462846FEF7EEFC9DF80A00A8B104F13E
:1048C000370291B26A1D90B23B4632220096FEF743
:1048D000E1FC002004F13C0291B26A1D009090B20C
:1048E0003B463222FEF7D6FC0BE0002004F13702F3
:1048F00091B26A1D009090B207F109033222FEF7CF
:10490000C9FCBDE8FE83F8B505460E4614460523EE
:104910001A46314628460094FEF7BCFCF8BD00005C
:104920002DE9F05F06460F46234C304601F006F9AC
:104930000546284601F03EF98146314601F097FAD6
:1049400020F000480021304601F060F905D225B979
:104950001AA12046FBF7E2FD04E02A4618A12046F2
:10496000FBF7C6FC1448FBF7FDFD134944182E2045
:1049700004F8010B4FF0000916E01249404601F01F
:1049800079F98046404601F0D9F882460AF13000B4
:1049900004F8010B504601F00DF98346414601F041
:1049A00066FA804609F10109B945E6DB002020706E
:1049B0000148BDE8F09F0000F01700202D300000F6
:1049C00025640000000020411CB5012078490870D2
:1049D000002048708870C8700871FEF789FEFFF7E4
:1049E000E1FAFFF729FBFFF733FDFEF76DFAFDF75C
:1049F0005BF9FDF7F1FAFFF749F9FEF797FDFEF7CE
:104A0000DFFC0020FEF7B6FC4FF478430B220521B3
:104A10000846FFF7BEFD002273214420FFF773FF15
:104A20004FF47843002205214B20FFF7B2FD4FF4ED
:104A3000784273218A20FFF766FF4FF478430A22F9
:104A400005219120FFF7A5FD00227321D020FFF75B
:104A50005AFF4FF478430B220521D720FFF799FD29
:104A60004FF6FF70812340F23F121946009000205C
:104A7000FEF79AFB4FF6FF70822340F23F12194671
:104A800000900020FEF790FB4FF6FF70EF23A0226E
:104A9000812100901046FEF787FB4FF6FF70EF2351
:104AA000A122812100901046FEF77EFB022000210A
:104AB0001F2340A2CDE9001087210A20FEF73EFC0B
:104AC000022000214FF4FC633DA2CDE90010A0219B
:104AD0002320FEF733FC022000214FF4FC633BA2AD
:104AE000CDE90010BE212320FEF728FC0220002182
:104AF0001F2339A2CDE900108721AF20FEF71EFC4D
:104B0000022000214FF4784336A2CDE90010A02105
:104B1000C820FEF713FC022000214FF4784334A292
:104B2000CDE90010BE21C820FEF708FC02200021BC
:104B30004FF4784330A2CDE90010DC21C820FEF705
:104B4000FDFB022000214FF6E0732DA2CDE90010FD
:104B5000A0210F20FEF7F2FB00212A4800F0C7F940
:104B60000021294800F0C3F90021284800F0BFF9CE
:104B700000F0CAF8264800F069F8264800F066F808
:104B8000254800F063F8254800F060F8244800F05C
:104B90005DF8012000F0C0F8FFF76EFA06E0FFF7BD
:104BA0008FFA18B11F492048FFF796FAF7E700007F
:104BB0001900002053455454494E47533A00000011
:104BC0005247533A32302020520000005350533A9B
:104BD00038202020487A00004F5054494F4E533A15
:104BE00000000000434F4D20504F52540000000081
:104BF0005344204341524400475241504820000052
:104C00003E000000140000201500002016000020C7
:104C1000AD27000815200008693900084141000847
:104C2000FD3A0008200000201E00002000B50246CA
:104C300072B603E062B600F05DF972B61078002833
:104C4000F8DD1078401E107062B600BD10B5044645
:104C500072B62948006800F09BF82748006800EB0E
:104C60004001C1EBC010254901EBC000C0F8E04392
:104C70002148006878B92048006800EB40002049CE
:104C800001EB80001C49096801EB41011C4A02EB61
:104C90008101486017E01848006800EB400018499F
:104CA00001EB800114480068401E00EB4000144AEC
:104CB00002EB8000416010460F49096801EB410199
:104CC00002EB810148600E480E4908600A480068FE
:104CD000401C09490860002007E0002100EB400269
:104CE000074B03EB82029160401C0349096888422C
:104CF000F3D362B6012010BD080000208000002020
:104D00003800002004000020014802490860704774
:104D1000401901000000002070B5044600204FF04B
:104D2000E021086188611749096804FB01F0401E11
:104D30004FF0E021486148170021002804DB0A07F2
:104D4000130E114A135406E00A07150E0F4A00F01D
:104D50000F031B1FD55400BF4FF0E020006940F047
:104D600004004FF0E02108610846006940F00100AE
:104D700008610846006940F002000861FBF75AFA32
:104D800070BD00000000002000E400E018ED00E02D
:104D900000EB4001C1EBC011434A02EBC10101F538
:104DA0006A7100EB4002414B43F822104FF08071D2
:104DB00000EB4002C2EBC0123B4B03EBC202C2F855
:104DC000E4134FF0AA3100EB4002C2EBC01203EB38
:104DD000C202C2F8DC1300EB4002C2EBC01203EBCC
:104DE000C202C2F8D81300EB4002C2EBC01203EBC0
:104DF000C202C2F8D41300EB4002C2EBC01203EBB4
:104E0000C202C2F8D01300EB4002C2EBC01203EBA7
:104E1000C202C2F8CC1300EB4002C2EBC01203EB9B
:104E2000C202C2F8C81300EB4002C2EBC01203EB8F
:104E3000C202C2F8C41300EB4002C2EBC01203EB83
:104E4000C202C2F8C01300EB4002C2EBC01203EB77
:104E5000C202C2F8BC1300EB4002C2EBC01203EB6B
:104E6000C202C2F8B81300EB4002C2EBC01203EB5F
:104E7000C202C2F8B41300EB4002C2EBC01203EB53
:104E8000C202C2F8B01300EB4002C2EBC01203EB47
:104E9000C202C2F8AC1300EB4002C2EBC01203EB3B
:104EA000C202C2F8A813704780000020380000201A
:104EB0000848006840680749086004E00548006841
:104EC0004068044908600348006880680028F5D1FC
:104ED000704700000400002072B60178491C017080
:104EE0000178012901DD0121017062B6704701706E
:104EF0007047000000204FF0E021886103480068FF
:104F000040F08060014908607047000004ED00E057
:104F100000B5024672B603480068826062B6FFF7C9
:104F2000E9FF00BD040000202DE9F04707460D46CB
:104F3000384600F01FFE0646304600F053FE81461C
:104F4000394600F094FF8046002426B9002220460E
:104F5000641C2A5428E03146002203E00A20B1FBF9
:104F6000F0F1521C0029F9D1501E18E001234FF036
:104F7000000C05E003EB83094FEA49030CF1010C37
:104F80008445F7DBB6FBF3FC4FF00A09BCFBF9FAEA
:104F900009FB1ACAA446641C05F80CA0401E002890
:104FA00001DB042CE2DB00BF18E00E49404600F0B4
:104FB00061FE8046404600F0DDFDC2B22046641C22
:104FC0002A54404600F0D6FD00F0FF0A504600F09B
:104FD00009FE8146414600F04AFF8046042CE4DB8E
:104FE000BDE8F0870000204110B500290AD00878FC
:104FF000002807D005487844FCF7FAF9002801D0CA
:10500000002010BD0248784410BD00006612000068
:105010005E12000010B500290AD00878002807D0D9
:1050200005487844FCF7E4F9002801D0002010BDC1
:105030000248784410BD0000561200004E120000D5
:1050400021F00042A2F16052B2F5801F01F000434E
:1050500028BFD2F17F6C0BD95FEA001C43EAC20281
:1050600042EB507018BF704728BF20F00100704716
:10507000B2F5801FBCBF184670474FEA410C1CF5C3
:10508000001F02D2084600F0BCBE70B500F014FB51
:1050900000000089FFF7F6BF4FF00040A0F5800048
:1050A0007047000010B591EA030F48BF83F000433A
:1050B00000F19483841A71EB030C05D2121943EBAF
:1050C0000C03001B61EB0C01DFF824E14FEA1154E3
:1050D000A4EB135C1EEA430F18BF9EEA445F73D033
:1050E00023EA0E03DCF1200E21EA045143F480137D
:1050F00032D322FA0CFE10EB0E0023FA0CFE41EB29
:105100000E01CCF1200E03FA0EFE10EB0E0051F151
:105110000001B1F5801FCCF1200E32D201EB045119
:1051200012FA0EF2BDE8104058BF7047401C38BF5D
:105130005FEA420218BF7047002814BF20F0010048
:1051400041F100014FEA410313F5001F38BF7047DA
:10515000A1F1C04100F0FEBA012A43EB0302ACF119
:10516000200CDCF11F0E32BF4FF0000E23FA0CF3BF
:1051700010EB030041EB0451B4EB115FD0D0A1EB75
:10518000045101F5801149085FEA300001EB045138
:105190000ED350F1000038BF12FA0EFE08D1BDE860
:1051A0001040C9E7401C38BF5FEA4202CAD1C3E7DA
:1051B000BDE810404FEA410313F5001F38BF7047A8
:1051C000A1F1C04100F0C6BA9EEA445F08D011EADE
:1051D0005E0FBDE8104004BF01F0004100207047A1
:1051E000BDE8104070B500F067FA00BF64FBBE3E3A
:1051F0000000E0FF491058BFC1F140415B1058BFAB
:10520000C3F140438B42EFF3008070472DE9C0416A
:1052100030B4DFF8A0C23CEA111418BF3CEA131402
:1052200000F0EC8081EA03051CEA111444EAD5740D
:1052300018BF1CEA131500F0C780A4EB05044FF05B
:10524000004545EAC12145EAC32341EA505143EAFA
:10525000525304F17F74994204F500344FEAC020A0
:105260004FEAC22208BF904200F09C804FEA1365CB
:105270000FF24016765D4FEA134506FB05F7C7F1BE
:10528000807706FB07F74FEAD737A7FB036876421C
:10529000C8F58038A7FB06CE38BFA8F1010807FB88
:1052A00008E64FF0000EA6FB028CE6FB03CEDCF115
:1052B000000CCEF1004E38BFAEF1010EA6FB0C582B
:1052C0004FF000074FF00005E6FB0E87A1FB08C674
:1052D000A0FB07CE16EB0E0645F10005E1FB0765C6
:1052E00015F1E04E7EBFA4F580345FEA46066D41BD
:1052F00016F1800745F100054FEA17274FEA0666C9
:1053000047EA0567A6F1DE46B6F1805F4FEA15254C
:105310001FD9384624F0010C05EBC471BCF1FE6FB7
:1053200001EB0C1102D8F0BCBDE8008124425CBF47
:1053300001F5801E9EEAC47F02D4F0BCBDE8008166
:10534000244238D4F0BCA1F1C041BDE8004100F0D6
:1053500001BA4FEAD22242EA43524FEAD323A7FBD3
:1053600002864FEAD02040EA415007FB03661EEA5E
:105370000E0F4FEAD12105FB026658BFA6EB00567F
:10538000B6EB00564FEA520E4EEAC37E18EB0E0EF5
:1053900056EB530EBDD518EB02085E417F1C55F14C
:1053A0000005B6E74FF480154FF000074FF00006F8
:1053B0004FF00008ADE7F0BC4FF0000001F1C04134
:1053C00001F00041BDE8008111EA0C1F0CEA131541
:1053D00000D00CE013EA0C1F00F025804FF0000015
:1053E000F0BC81EA030101F00041BDE80081F0BC9E
:1053F000BDE8004181EA030100F0ACB9F0BCBDE8B2
:10540000004170B500F058F9097EFC3E00F007B885
:1054100081EA03014FF0000001F00041704781EA8A
:10542000030100F097B9F0BCBDE800414FF0000067
:1054300021497047FFFDFBF9F7F5F4F2F0EEEDEBD3
:10544000E9E8E6E4E3E1E0DEDDDBDAD8D7D5D4D382
:10545000D1D0CFCDCCCBCAC8C7C6C5C4C2C1C0BFCE
:10546000BEBDBCBBBAB9B8B7B6B5B4B3B2B1B0AFD4
:10547000AEADACABAAA9A8A8A7A6A5A4A3A3A2A1B8
:10548000A09F9F9E9D9C9C9B9A9999989797969573
:1054900095949393929191908F8F8E8E8D8C8C8B0F
:1054A0008B8A898988888787868585848483838297
:1054B000828181800000FF070000F87F10F0004229
:1054C00048BF4042B0FA80F310FA03F10AD0C3F1AA
:1054D0001D0303F580634FEA415002EB035202EBD8
:1054E000D12170474FF000007047000051EA030CD3
:1054F00017D41CF5801F58BFBCF5801F00F1068033
:10550000994218BF704708BF9042704707D711F5FE
:10551000801F58BF13F5801F19D4994270478942E4
:1055200070471CF5801F08D5BCF5801FF7D58B424E
:1055300018BF704708BF824270474FF4001C1CEB35
:10554000410F38BF1CEB430F01D28B42704770B53F
:1055500000F0B2F8922449004FF000514FF0805310
:10556000FFF748BEDFF848C170B51CEA111E1EBF28
:105570001CEA13159EEA0C0F95EA0C0F00F06F80E1
:1055800081EA030423EA4C134EEAD47E21EA4C114B
:1055900041F4801143F48013AE44A1FB024CA0FB04
:1055A0000365AEF17F7E361955EB0C05A1FB034C6C
:1055B0004CF10003A0FB021C16EB0C06654153F1F5
:1055C0000003094218BF46F0010613F4007F0BD117
:1055D0004FEA03314FEA0530340341EA155140EAFE
:1055E00016506FF003020AE04FEAC3214FEAC520CC
:1055F000F40241EA555140EA56506FF0020202EBC4
:105600002E4201EB025585EACE710AD05FEA440CC6
:1056100018BF24F0004450F1000041F1000120EADD
:10562000D47040F2FE7C624500D270BDA84214BF27
:105630004FF080444FF04044002E08BF0024BEF1DC
:10564000806FA8BFA1F1C041BDE8704080F28280A8
:105650004FF0000001F1C04101F0004170479EEAA7
:105660000C0F0CEA131518BF95EA0C0F06D04FF07B
:10567000000081EA030E0EF0004170BD00F01CF83E
:105680008900013E00F007B800F009B84FEA430C6A
:105690005FEA5C5C08D081EA030100F05BB84FEA86
:1056A000410C5FEA5C5CF6D14FF0000001497047A5
:1056B0000000FF070000F87F0EF1020E2EF0030E2F
:1056C0005EF8046B364205D4012A43EB030515F559
:1056D000001F12D8012841EB010C1CF5001F0CD84B
:1056E0000ED14FEAD17C15F5001F0CEB4C0C0CF1E0
:1056F000020C08BF4CEBD37C04E04FF0080C01E037
:105700004FEAD37C0CEB4C0526FA05F606F00706AB
:10571000B6F1040C06D20EEB860CBDE870404CF0DE
:10572000010C6047DFE80CF0090B02024FF000416A
:105730004FF00000A1F5002170BD19461046012868
:1057400051EB010418BFD4F5001484BF002001F010
:10575000004170BD0808A0F500114FEA3101704703
:1057600053EA010C17D41CF5801F58BFBCF5801FED
:1057700000F106808B4218BF704708BF8242704715
:1057800007D713F5801F58BF11F5801F19D48B421E
:1057900070479B4270471CF5801F08D5BCF5801FE1
:1057A000F7D5994218BF704708BF904270474FF431
:1057B000001C1CEB430F38BF1CEB410F01D2994278
:1057C00070470FB40CBC03BCFFF7C1BE10B591EA23
:1057D000030F48BF83F000433FF56CAC841A71EBB4
:1057E000030C07D212198CF0004C43EB0C03001B86
:1057F00061EB0C01DFF8A4E14FEA1154A4EB135C58
:105800001EEA430F18BF9EEA445F00F0B08023EA0F
:105810006E03524221EA0451C3EB6E0338BF5B1E94
:10582000DCF1200E25D322FA0CFE10EB0E0043FA19
:105830000CFE41EB0E01CCF1200E03FA0EFE10EB34
:105840000E0051F10001CCF1200E29D412FA0EF213
:1058500001EB0451BDE8104058BF7047401C1CBF0D
:10586000B2F1004F704700280CBF491C20F0010026
:10587000704712EB020E43EB030218BF4FF0010E0C
:105880004EEA4202ACF1200CDCF11E0E54D943FA70
:105890000CFE10EB0E0051F1FF31CCF11E0ED5D5F0
:1058A0000EF1010E12FA0EFE404141EB010101EB37
:1058B000445C5FEA5C5C10D910EBDE7001EB0451D4
:1058C00038BFBEF1004FBDE8104018BF7047002838
:1058D0000CBF491C20F00100704730D24FEAD42C95
:1058E00011F5001124F400641BD0B1FA81F20B3AD7
:1058F000A41AA41ED2F12003914030FA03F31943F5
:10590000904001EBCC71002C01EB0451BDE810403C
:10591000A8BF704701F1C0414FF0000001F0004105
:105920007047B0FA80F310FA03F100D110BDE41A09
:10593000173C4805C90AE4E701EB045110BD4910C2
:1059400001EB0451BDE810404FEA300002E04FF097
:10595000000170474A0008BF0042F8D0B2F5001FAE
:1059600028BF704701F000414FF0000070479EEAE9
:10597000445F07D011EA5E0FBDE8104004BF00216C
:1059800000207047BDE8104070B5FFF795FE00BFDE
:1059900040DFF63E83F00041104670470000E0FF14
:1059A00043004FEAD30C4FEA3C0C43401FBF400773
:1059B0000CF1605113F0FE4F70471CF0006F03D1E3
:1059C00000200CF0004170470CF0004343EA507097
:1059D00010B540EACC0000F0CEF900BF0000009204
:1059E0004FEA0001FFF7B6BE4FF000414FF0000054
:1059F000A1F500217047000090EA010F48BF81F037
:105A0000004100F14682421A3CBF801A89184FEAD1
:105A1000D0524FF07F4C1CEA410FA2EBD15318BF7C
:105A20009CEA026F00F03B804FF0004C4CEA0020F3
:105A30004CEA012121FA03FC10EB0C0C1ED202F1FE
:105A4000FF325FEA1C2040EBC25038BF70471CF0A9
:105A50007F0F4FEA400C18BFBCF17F4F38BF704733
:105A6000C3F12003994008BF20F00100BCF17F4F33
:105A700038BF7047A0F1C04000F0C3B94FEA3C0006
:105A8000000A40EBC25028BF1CF0FF0F4FEA400C49
:105A9000E6D018BFBCF17F4F38BF7047EAE79CEAF9
:105AA000026F05D010EA5C0F08BF00F0004070479D
:105AB00010B500F060F900BF64FBBE3E401058BF57
:105AC000C0F14040491058BFC1F140418142EFF35D
:105AD0000080704750EA010C00F113801CF5000FA4
